{
  "contractName": "MusicAlbums",
  "abi": [
    {
      "inputs": [
        {
          "internalType": "bool",
          "name": "isFullyOwned",
          "type": "bool"
        }
      ],
      "stateMutability": "nonpayable",
      "type": "constructor"
    },
    {
      "anonymous": false,
      "inputs": [
        {
          "indexed": true,
          "internalType": "address",
          "name": "owner",
          "type": "address"
        },
        {
          "indexed": true,
          "internalType": "address",
          "name": "approved",
          "type": "address"
        },
        {
          "indexed": true,
          "internalType": "uint256",
          "name": "tokenId",
          "type": "uint256"
        }
      ],
      "name": "Approval",
      "type": "event"
    },
    {
      "anonymous": false,
      "inputs": [
        {
          "indexed": true,
          "internalType": "address",
          "name": "owner",
          "type": "address"
        },
        {
          "indexed": true,
          "internalType": "address",
          "name": "operator",
          "type": "address"
        },
        {
          "indexed": false,
          "internalType": "bool",
          "name": "approved",
          "type": "bool"
        }
      ],
      "name": "ApprovalForAll",
      "type": "event"
    },
    {
      "anonymous": false,
      "inputs": [
        {
          "indexed": true,
          "internalType": "uint256",
          "name": "id",
          "type": "uint256"
        },
        {
          "indexed": true,
          "internalType": "address",
          "name": "bidder",
          "type": "address"
        },
        {
          "indexed": false,
          "internalType": "uint256",
          "name": "amount",
          "type": "uint256"
        }
      ],
      "name": "MusicAlbumBidPlaced",
      "type": "event"
    },
    {
      "anonymous": false,
      "inputs": [
        {
          "indexed": true,
          "internalType": "uint256",
          "name": "id",
          "type": "uint256"
        },
        {
          "indexed": true,
          "internalType": "address",
          "name": "artist",
          "type": "address"
        },
        {
          "indexed": false,
          "internalType": "uint256",
          "name": "price",
          "type": "uint256"
        }
      ],
      "name": "MusicAlbumListed",
      "type": "event"
    },
    {
      "anonymous": false,
      "inputs": [
        {
          "indexed": true,
          "internalType": "uint256",
          "name": "id",
          "type": "uint256"
        },
        {
          "indexed": true,
          "internalType": "address",
          "name": "artist",
          "type": "address"
        },
        {
          "indexed": false,
          "internalType": "string",
          "name": "name",
          "type": "string"
        },
        {
          "indexed": false,
          "internalType": "string",
          "name": "description",
          "type": "string"
        },
        {
          "indexed": false,
          "internalType": "uint256",
          "name": "price",
          "type": "uint256"
        }
      ],
      "name": "MusicAlbumMinted",
      "type": "event"
    },
    {
      "anonymous": false,
      "inputs": [
        {
          "indexed": true,
          "internalType": "uint256",
          "name": "id",
          "type": "uint256"
        },
        {
          "indexed": true,
          "internalType": "address",
          "name": "buyer",
          "type": "address"
        },
        {
          "indexed": false,
          "internalType": "uint256",
          "name": "amount",
          "type": "uint256"
        }
      ],
      "name": "MusicAlbumSold",
      "type": "event"
    },
    {
      "anonymous": false,
      "inputs": [
        {
          "indexed": true,
          "internalType": "uint256",
          "name": "id",
          "type": "uint256"
        },
        {
          "indexed": true,
          "internalType": "address",
          "name": "artist",
          "type": "address"
        }
      ],
      "name": "MusicAlbumUnlisted",
      "type": "event"
    },
    {
      "anonymous": false,
      "inputs": [
        {
          "indexed": true,
          "internalType": "address",
          "name": "from",
          "type": "address"
        },
        {
          "indexed": true,
          "internalType": "address",
          "name": "to",
          "type": "address"
        },
        {
          "indexed": true,
          "internalType": "uint256",
          "name": "tokenId",
          "type": "uint256"
        }
      ],
      "name": "Transfer",
      "type": "event"
    },
    {
      "inputs": [
        {
          "internalType": "string",
          "name": "",
          "type": "string"
        }
      ],
      "name": "_artistDetails",
      "outputs": [
        {
          "internalType": "string",
          "name": "nameArtist",
          "type": "string"
        },
        {
          "internalType": "uint256",
          "name": "appreciationScore",
          "type": "uint256"
        }
      ],
      "stateMutability": "view",
      "type": "function",
      "constant": true
    },
    {
      "inputs": [
        {
          "internalType": "uint256",
          "name": "",
          "type": "uint256"
        }
      ],
      "name": "_musicAlbums",
      "outputs": [
        {
          "internalType": "uint256",
          "name": "id",
          "type": "uint256"
        },
        {
          "internalType": "address payable",
          "name": "artist",
          "type": "address"
        },
        {
          "internalType": "string",
          "name": "artistName",
          "type": "string"
        },
        {
          "internalType": "string",
          "name": "name",
          "type": "string"
        },
        {
          "internalType": "string",
          "name": "description",
          "type": "string"
        },
        {
          "internalType": "uint256",
          "name": "price",
          "type": "uint256"
        },
        {
          "internalType": "bool",
          "name": "forSale",
          "type": "bool"
        },
        {
          "internalType": "uint256",
          "name": "percentageOwnershipTransfered",
          "type": "uint256"
        }
      ],
      "stateMutability": "view",
      "type": "function",
      "constant": true
    },
    {
      "inputs": [
        {
          "internalType": "address",
          "name": "to",
          "type": "address"
        },
        {
          "internalType": "uint256",
          "name": "tokenId",
          "type": "uint256"
        }
      ],
      "name": "approve",
      "outputs": [],
      "stateMutability": "nonpayable",
      "type": "function"
    },
    {
      "inputs": [
        {
          "internalType": "address",
          "name": "owner",
          "type": "address"
        }
      ],
      "name": "balanceOf",
      "outputs": [
        {
          "internalType": "uint256",
          "name": "",
          "type": "uint256"
        }
      ],
      "stateMutability": "view",
      "type": "function",
      "constant": true
    },
    {
      "inputs": [
        {
          "internalType": "uint256",
          "name": "tokenId",
          "type": "uint256"
        }
      ],
      "name": "getApproved",
      "outputs": [
        {
          "internalType": "address",
          "name": "",
          "type": "address"
        }
      ],
      "stateMutability": "view",
      "type": "function",
      "constant": true
    },
    {
      "inputs": [
        {
          "internalType": "address",
          "name": "owner",
          "type": "address"
        },
        {
          "internalType": "address",
          "name": "operator",
          "type": "address"
        }
      ],
      "name": "isApprovedForAll",
      "outputs": [
        {
          "internalType": "bool",
          "name": "",
          "type": "bool"
        }
      ],
      "stateMutability": "view",
      "type": "function",
      "constant": true
    },
    {
      "inputs": [],
      "name": "name",
      "outputs": [
        {
          "internalType": "string",
          "name": "",
          "type": "string"
        }
      ],
      "stateMutability": "view",
      "type": "function",
      "constant": true
    },
    {
      "inputs": [
        {
          "internalType": "uint256",
          "name": "tokenId",
          "type": "uint256"
        }
      ],
      "name": "ownerOf",
      "outputs": [
        {
          "internalType": "address",
          "name": "",
          "type": "address"
        }
      ],
      "stateMutability": "view",
      "type": "function",
      "constant": true
    },
    {
      "inputs": [
        {
          "internalType": "address",
          "name": "from",
          "type": "address"
        },
        {
          "internalType": "address",
          "name": "to",
          "type": "address"
        },
        {
          "internalType": "uint256",
          "name": "tokenId",
          "type": "uint256"
        }
      ],
      "name": "safeTransferFrom",
      "outputs": [],
      "stateMutability": "nonpayable",
      "type": "function"
    },
    {
      "inputs": [
        {
          "internalType": "address",
          "name": "from",
          "type": "address"
        },
        {
          "internalType": "address",
          "name": "to",
          "type": "address"
        },
        {
          "internalType": "uint256",
          "name": "tokenId",
          "type": "uint256"
        },
        {
          "internalType": "bytes",
          "name": "data",
          "type": "bytes"
        }
      ],
      "name": "safeTransferFrom",
      "outputs": [],
      "stateMutability": "nonpayable",
      "type": "function"
    },
    {
      "inputs": [
        {
          "internalType": "address",
          "name": "operator",
          "type": "address"
        },
        {
          "internalType": "bool",
          "name": "approved",
          "type": "bool"
        }
      ],
      "name": "setApprovalForAll",
      "outputs": [],
      "stateMutability": "nonpayable",
      "type": "function"
    },
    {
      "inputs": [
        {
          "internalType": "bytes4",
          "name": "interfaceId",
          "type": "bytes4"
        }
      ],
      "name": "supportsInterface",
      "outputs": [
        {
          "internalType": "bool",
          "name": "",
          "type": "bool"
        }
      ],
      "stateMutability": "view",
      "type": "function",
      "constant": true
    },
    {
      "inputs": [],
      "name": "symbol",
      "outputs": [
        {
          "internalType": "string",
          "name": "",
          "type": "string"
        }
      ],
      "stateMutability": "view",
      "type": "function",
      "constant": true
    },
    {
      "inputs": [
        {
          "internalType": "uint256",
          "name": "tokenId",
          "type": "uint256"
        }
      ],
      "name": "tokenURI",
      "outputs": [
        {
          "internalType": "string",
          "name": "",
          "type": "string"
        }
      ],
      "stateMutability": "view",
      "type": "function",
      "constant": true
    },
    {
      "inputs": [
        {
          "internalType": "address",
          "name": "from",
          "type": "address"
        },
        {
          "internalType": "address",
          "name": "to",
          "type": "address"
        },
        {
          "internalType": "uint256",
          "name": "tokenId",
          "type": "uint256"
        }
      ],
      "name": "transferFrom",
      "outputs": [],
      "stateMutability": "nonpayable",
      "type": "function"
    },
    {
      "inputs": [
        {
          "internalType": "string",
          "name": "name",
          "type": "string"
        },
        {
          "internalType": "string",
          "name": "description",
          "type": "string"
        },
        {
          "internalType": "string",
          "name": "artistName",
          "type": "string"
        },
        {
          "internalType": "uint256",
          "name": "price",
          "type": "uint256"
        },
        {
          "internalType": "uint256",
          "name": "percentageOwnershipTransfered",
          "type": "uint256"
        }
      ],
      "name": "mintMusicNFT",
      "outputs": [
        {
          "internalType": "uint256",
          "name": "",
          "type": "uint256"
        }
      ],
      "stateMutability": "nonpayable",
      "type": "function"
    },
    {
      "inputs": [
        {
          "internalType": "uint256",
          "name": "id",
          "type": "uint256"
        }
      ],
      "name": "getMusicAlbum",
      "outputs": [
        {
          "components": [
            {
              "internalType": "uint256",
              "name": "id",
              "type": "uint256"
            },
            {
              "internalType": "address payable",
              "name": "artist",
              "type": "address"
            },
            {
              "internalType": "string",
              "name": "artistName",
              "type": "string"
            },
            {
              "internalType": "string",
              "name": "name",
              "type": "string"
            },
            {
              "internalType": "string",
              "name": "description",
              "type": "string"
            },
            {
              "internalType": "uint256",
              "name": "price",
              "type": "uint256"
            },
            {
              "internalType": "bool",
              "name": "forSale",
              "type": "bool"
            },
            {
              "internalType": "uint256",
              "name": "percentageOwnershipTransfered",
              "type": "uint256"
            }
          ],
          "internalType": "struct MusicAlbums.MusicAlbum",
          "name": "",
          "type": "tuple"
        }
      ],
      "stateMutability": "view",
      "type": "function",
      "constant": true
    },
    {
      "inputs": [
        {
          "internalType": "uint256",
          "name": "id",
          "type": "uint256"
        },
        {
          "internalType": "uint256",
          "name": "Price",
          "type": "uint256"
        }
      ],
      "name": "listMusicForSale",
      "outputs": [],
      "stateMutability": "nonpayable",
      "type": "function"
    },
    {
      "inputs": [
        {
          "internalType": "uint256",
          "name": "id",
          "type": "uint256"
        }
      ],
      "name": "unlistMusicFromSale",
      "outputs": [],
      "stateMutability": "nonpayable",
      "type": "function"
    },
    {
      "inputs": [
        {
          "internalType": "uint256",
          "name": "_tokenId",
          "type": "uint256"
        },
        {
          "internalType": "uint256",
          "name": "amount",
          "type": "uint256"
        }
      ],
      "name": "BidQuote",
      "outputs": [],
      "stateMutability": "payable",
      "type": "function",
      "payable": true
    },
    {
      "inputs": [
        {
          "internalType": "uint256",
          "name": "_tokenId",
          "type": "uint256"
        }
      ],
      "name": "sellMusicRights",
      "outputs": [],
      "stateMutability": "nonpayable",
      "type": "function"
    },
    {
      "inputs": [
        {
          "internalType": "uint256",
          "name": "_tokenId",
          "type": "uint256"
        }
      ],
      "name": "transferether",
      "outputs": [],
      "stateMutability": "payable",
      "type": "function",
      "payable": true
    },
    {
      "inputs": [
        {
          "internalType": "uint256",
          "name": "_tokenId",
          "type": "uint256"
        },
        {
          "internalType": "uint256",
          "name": "value",
          "type": "uint256"
        }
      ],
      "name": "artistStats",
      "outputs": [],
      "stateMutability": "nonpayable",
      "type": "function"
    },
    {
      "inputs": [
        {
          "internalType": "uint256",
          "name": "_tokenId",
          "type": "uint256"
        }
      ],
      "name": "viewHighestBidder",
      "outputs": [
        {
          "internalType": "address",
          "name": "",
          "type": "address"
        }
      ],
      "stateMutability": "view",
      "type": "function",
      "constant": true
    },
    {
      "inputs": [
        {
          "internalType": "uint256",
          "name": "_tokenId",
          "type": "uint256"
        }
      ],
      "name": "viewHighestBid",
      "outputs": [
        {
          "internalType": "uint256",
          "name": "",
          "type": "uint256"
        }
      ],
      "stateMutability": "view",
      "type": "function",
      "constant": true
    },
    {
      "inputs": [
        {
          "internalType": "uint256",
          "name": "_tokenId",
          "type": "uint256"
        }
      ],
      "name": "sendProfits",
      "outputs": [],
      "stateMutability": "payable",
      "type": "function",
      "payable": true
    }
  ],
  "bytecode": "0x60806040523480156200001157600080fd5b50604051620031373803806200313783398101604081905262000034916200015f565b604080518082018252600b81526a4d75736963416c62756d7360a81b6020808301918252835180850190945260058452644d5553494360d81b9084015281519192916200008491600091620000b9565b5080516200009a906001906020840190620000b9565b50506001600655506008805460ff1916911515919091179055620001c5565b828054620000c79062000188565b90600052602060002090601f016020900481019282620000eb576000855562000136565b82601f106200010657805160ff191683800117855562000136565b8280016001018555821562000136579182015b828111156200013657825182559160200191906001019062000119565b506200014492915062000148565b5090565b5b8082111562000144576000815560010162000149565b60006020828403121562000171578081fd5b8151801515811462000181578182fd5b9392505050565b6002810460018216806200019d57607f821691505b60208210811415620001bf57634e487b7160e01b600052602260045260246000fd5b50919050565b612f6280620001d56000396000f3fe6080604052600436106101815760003560e01c80635c95e96a116100d1578063b6ad2a0d1161008a578063c87b56dd11610064578063c87b56dd14610469578063db296fa714610489578063e985e9c5146104b7578063efb38875146104d757610181565b8063b6ad2a0d14610416578063b88d4fde14610436578063c6db28ed1461045657610181565b80635c95e96a1461034d5780636352211e146103815780636768d0b9146103a157806370a08231146103c157806395d89b41146103e1578063a22cb465146103f657610181565b806323b872dd1161013e5780633b7f43e8116101185780633b7f43e8146102c057806342842e0e146102e0578063544684371461030057806359b0d3921461032d57610181565b806323b872dd1461027a5780632bfae4e31461029a57806332f81926146102ad57610181565b806301ffc9a714610186578063035bab18146101bc57806306fdde03146101de578063081812fc14610200578063095ea7b31461022d5780631905404b1461024d575b600080fd5b34801561019257600080fd5b506101a66101a1366004612575565b6104f7565b6040516101b3919061278a565b60405180910390f35b3480156101c857600080fd5b506101dc6101d7366004612676565b61053f565b005b3480156101ea57600080fd5b506101f3610615565b6040516101b39190612795565b34801561020c57600080fd5b5061022061021b366004612676565b6106a7565b6040516101b39190612739565b34801561023957600080fd5b506101dc61024836600461254c565b6106ce565b34801561025957600080fd5b5061026d610268366004612676565b610766565b6040516101b39190612d77565b34801561028657600080fd5b506101dc61029536600461245e565b6109b2565b6101dc6102a8366004612676565b6109ea565b6101dc6102bb36600461268e565b610ab9565b3480156102cc57600080fd5b506101dc6102db366004612676565b610bf9565b3480156102ec57600080fd5b506101dc6102fb36600461245e565b610fa1565b34801561030c57600080fd5b5061032061031b3660046125e0565b610fbc565b6040516101b39190612e22565b34801561033957600080fd5b50610320610348366004612676565b61111d565b34801561035957600080fd5b5061036d610368366004612676565b61112f565b6040516101b3989796959493929190612e2b565b34801561038d57600080fd5b5061022061039c366004612676565b611318565b3480156103ad57600080fd5b506101dc6103bc36600461268e565b61134c565b3480156103cd57600080fd5b506103206103dc366004612412565b6115cc565b3480156103ed57600080fd5b506101f3611610565b34801561040257600080fd5b506101dc610411366004612512565b61161f565b34801561042257600080fd5b506101dc61043136600461268e565b611631565b34801561044257600080fd5b506101dc610451366004612499565b61171d565b6101dc610464366004612676565b61175c565b34801561047557600080fd5b506101f3610484366004612676565b6119cf565b34801561049557600080fd5b506104a96104a43660046125ad565b611a36565b6040516101b39291906127de565b3480156104c357600080fd5b506101a66104d236600461242c565b611ae5565b3480156104e357600080fd5b506102206104f2366004612676565b611b13565b60006001600160e01b031982166380ac58cd60e01b148061052857506001600160e01b03198216635b5e139f60e01b145b80610537575061053782611b31565b90505b919050565b8061054981611b4a565b61056e5760405162461bcd60e51b815260040161056590612bd2565b60405180910390fd5b813361057982611318565b6001600160a01b03161461059f5760405162461bcd60e51b815260040161056590612b0c565b6000838152600a602052604090206006015460ff166105bd57600080fd5b6000838152600a602052604080822060068101805460ff191690556001015490516001600160a01b039091169185917fa838ff4f1736bbe39b840382601b36e48686ed861ebfb220b3f1a39c086a2e549190a3505050565b60606000805461062490612ecb565b80601f016020809104026020016040519081016040528092919081815260200182805461065090612ecb565b801561069d5780601f106106725761010080835404028352916020019161069d565b820191906000526020600020905b81548152906001019060200180831161068057829003601f168201915b5050505050905090565b60006106b282611b67565b506000908152600460205260409020546001600160a01b031690565b60006106d982611318565b9050806001600160a01b0316836001600160a01b0316141561070d5760405162461bcd60e51b815260040161056590612c38565b806001600160a01b031661071f611b8c565b6001600160a01b0316148061073b575061073b816104d2611b8c565b6107575760405162461bcd60e51b815260040161056590612cbd565b6107618383611b90565b505050565b61076e61227d565b8161077881611b4a565b6107945760405162461bcd60e51b815260040161056590612bd2565b6000838152600a60209081526040918290208251610100810184528154815260018201546001600160a01b03169281019290925260028101805492939192918401916107df90612ecb565b80601f016020809104026020016040519081016040528092919081815260200182805461080b90612ecb565b80156108585780601f1061082d57610100808354040283529160200191610858565b820191906000526020600020905b81548152906001019060200180831161083b57829003601f168201915b5050505050815260200160038201805461087190612ecb565b80601f016020809104026020016040519081016040528092919081815260200182805461089d90612ecb565b80156108ea5780601f106108bf576101008083540402835291602001916108ea565b820191906000526020600020905b8154815290600101906020018083116108cd57829003601f168201915b5050505050815260200160048201805461090390612ecb565b80601f016020809104026020016040519081016040528092919081815260200182805461092f90612ecb565b801561097c5780601f106109515761010080835404028352916020019161097c565b820191906000526020600020905b81548152906001019060200180831161095f57829003601f168201915b505050918352505060058201546020820152600682015460ff161515604082015260079091015460609091015291505b50919050565b6109c36109bd611b8c565b82611bfe565b6109df5760405162461bcd60e51b815260040161056590612800565b610761838383611c5d565b6000818152600b60205260409020600101546001600160a01b03163314610a235760405162461bcd60e51b815260040161056590612966565b6000818152600b6020526040902054341015610a515760405162461bcd60e51b81526004016105659061299b565b6000818152600a60205260408082206001015490516001600160a01b039091169182913480156108fc0292909190818181858888f19350505050158015610a9c573d6000803e3d6000fd5b50506000908152600a60205260409020600601805460ff19169055565b610ac1611d9a565b81610acb81611b4a565b610ae75760405162461bcd60e51b815260040161056590612bd2565b6000838152600a6020526040902060060154839060ff161515600114610b1f5760405162461bcd60e51b815260040161056590612a57565b6000848152600a6020526040902060050154831015610b505760405162461bcd60e51b81526004016105659061284d565b6000848152600b60205260409020548311610b7d5760405162461bcd60e51b815260040161056590612b9b565b6000848152600b60205260409081902084815560010180546001600160a01b03191633179081905590516001600160a01b03919091169085907f11d366418ea72221a3ef9657d35e6364c1425aad69ab6d8fc3497fdbcf3dd7ac90610be3908790612e22565b60405180910390a35050610bf5611dc4565b5050565b610c01611d9a565b8033610c0c82611318565b6001600160a01b031614610c325760405162461bcd60e51b815260040161056590612b0c565b6000828152600a6020526040902060060154829060ff161515600114610c6a5760405162461bcd60e51b815260040161056590612a57565b6000838152600a602090815260408083208151610100810183528154815260018201546001600160a01b0316938101939093526002810180549192840191610cb190612ecb565b80601f0160208091040260200160405190810160405280929190818152602001828054610cdd90612ecb565b8015610d2a5780601f10610cff57610100808354040283529160200191610d2a565b820191906000526020600020905b815481529060010190602001808311610d0d57829003601f168201915b50505050508152602001600382018054610d4390612ecb565b80601f0160208091040260200160405190810160405280929190818152602001828054610d6f90612ecb565b8015610dbc5780601f10610d9157610100808354040283529160200191610dbc565b820191906000526020600020905b815481529060010190602001808311610d9f57829003601f168201915b50505050508152602001600482018054610dd590612ecb565b80601f0160208091040260200160405190810160405280929190818152602001828054610e0190612ecb565b8015610e4e5780601f10610e2357610100808354040283529160200191610e4e565b820191906000526020600020905b815481529060010190602001808311610e3157829003601f168201915b50505091835250506005820154602080830191909152600683015460ff1615156040808401919091526007909301546060909201919091526000878152600b90915220600181015490549192506001600160a01b03169081610ec25760405162461bcd60e51b815260040161056590612d1a565b8260a00151811015610ee65760405162461bcd60e51b815260040161056590612b56565b6032811115610efa57610efa86600561134c565b6032811015610f0e57610f0e86600561134c565b610f2933838860405180602001604052806000815250611dcb565b6000868152600a602052604080822060068101805460ff1916600117905560050191909155516001600160a01b0383169087907f2000592637b6d37e9d7decb35cbab1444a9ae4e1df72aa6afd8ca7b8ee03fe7790610f89908590612e22565b60405180910390a35050505050610f9e611dc4565b50565b6107618383836040518060200160405280600081525061171d565b6000610fc86007611dfe565b6000610fd46007611e07565b9050610fe03382611e0b565b6040805161010081018252828152336020808301918252828401898152606084018c9052608084018b905260a08401899052600060c0850181905260e08501899052868152600a8352949094208351815591516001830180546001600160a01b0319166001600160a01b03909216919091179055925180519293919261106c92600285019201906122cd565b50606082015180516110889160038401916020909101906122cd565b50608082015180516110a49160048401916020909101906122cd565b5060a0820151600582015560c082015160068201805460ff191691151591909117905560e090910151600790910155604051339082907ffb3c8a4adc98071b6da40bce71224e9a8d4d7c0537b17a5a80e41d79e12c44fc9061110b908b908b908a906127a8565b60405180910390a39695505050505050565b6000908152600b602052604090205490565b600a6020526000908152604090208054600182015460028301805492936001600160a01b039092169261116190612ecb565b80601f016020809104026020016040519081016040528092919081815260200182805461118d90612ecb565b80156111da5780601f106111af576101008083540402835291602001916111da565b820191906000526020600020905b8154815290600101906020018083116111bd57829003601f168201915b5050505050908060030180546111ef90612ecb565b80601f016020809104026020016040519081016040528092919081815260200182805461121b90612ecb565b80156112685780601f1061123d57610100808354040283529160200191611268565b820191906000526020600020905b81548152906001019060200180831161124b57829003601f168201915b50505050509080600401805461127d90612ecb565b80601f01602080910402602001604051908101604052809291908181526020018280546112a990612ecb565b80156112f65780601f106112cb576101008083540402835291602001916112f6565b820191906000526020600020905b8154815290600101906020018083116112d957829003601f168201915b50505050600583015460068401546007909401549293909260ff909116915088565b60008061132483611f00565b90506001600160a01b0381166105375760405162461bcd60e51b815260040161056590612c01565b6000828152600a602090815260408083208151610100810183528154815260018201546001600160a01b031693810193909352600281018054919284019161139390612ecb565b80601f01602080910402602001604051908101604052809291908181526020018280546113bf90612ecb565b801561140c5780601f106113e15761010080835404028352916020019161140c565b820191906000526020600020905b8154815290600101906020018083116113ef57829003601f168201915b5050505050815260200160038201805461142590612ecb565b80601f016020809104026020016040519081016040528092919081815260200182805461145190612ecb565b801561149e5780601f106114735761010080835404028352916020019161149e565b820191906000526020600020905b81548152906001019060200180831161148157829003601f168201915b505050505081526020016004820180546114b790612ecb565b80601f01602080910402602001604051908101604052809291908181526020018280546114e390612ecb565b80156115305780601f1061150557610100808354040283529160200191611530565b820191906000526020600020905b81548152906001019060200180831161151357829003601f168201915b505050918352505060058201546020820152600682015460ff16151560408083019190915260079092015460609091015281810151905191925090839060099061157b9084906126ee565b908152602001604051809103902060010181905550806009826040516115a191906126ee565b908152602001604051809103902060000190805190602001906115c59291906122cd565b5050505050565b60006001600160a01b0382166115f45760405162461bcd60e51b815260040161056590612a8e565b506001600160a01b031660009081526003602052604090205490565b60606001805461062490612ecb565b610bf561162a611b8c565b8383611f1b565b8161163b81611b4a565b6116575760405162461bcd60e51b815260040161056590612bd2565b823361166282611318565b6001600160a01b0316146116885760405162461bcd60e51b815260040161056590612b0c565b6000848152600a602052604090206006015460ff16156116a757600080fd5b6000848152600a60205260409081902060068101805460ff1916600190811790915560058201869055015490516001600160a01b039091169085907f98ce200838d2b356a970096901e2cac37424ad4f1ca86350a2680bf85d48e4bd9061170f908790612e22565b60405180910390a350505050565b61172e611728611b8c565b83611bfe565b61174a5760405162461bcd60e51b815260040161056590612800565b61175684848484611dcb565b50505050565b6000818152600a602090815260408083208151610100810183528154815260018201546001600160a01b03169381019390935260028101805491928401916117a390612ecb565b80601f01602080910402602001604051908101604052809291908181526020018280546117cf90612ecb565b801561181c5780601f106117f15761010080835404028352916020019161181c565b820191906000526020600020905b8154815290600101906020018083116117ff57829003601f168201915b5050505050815260200160038201805461183590612ecb565b80601f016020809104026020016040519081016040528092919081815260200182805461186190612ecb565b80156118ae5780601f10611883576101008083540402835291602001916118ae565b820191906000526020600020905b81548152906001019060200180831161189157829003601f168201915b505050505081526020016004820180546118c790612ecb565b80601f01602080910402602001604051908101604052809291908181526020018280546118f390612ecb565b80156119405780601f1061191557610100808354040283529160200191611940565b820191906000526020600020905b81548152906001019060200180831161192357829003601f168201915b505050918352505060058201546020820152600682015460ff161515604082015260079091015460609091015260e08101519091506064116119945760405162461bcd60e51b815260040161056590612c79565b60208101516040516001600160a01b03909116903480156108fc02916000818181858888f19350505050158015610761573d6000803e3d6000fd5b60606119da82611b67565b60006119e4611fbe565b90506000815111611a045760405180602001604052806000815250611a2f565b80611a0e84611fd0565b604051602001611a1f92919061270a565b6040516020818303038152906040525b9392505050565b8051602081830181018051600982529282019190930120915280548190611a5c90612ecb565b80601f0160208091040260200160405190810160405280929190818152602001828054611a8890612ecb565b8015611ad55780601f10611aaa57610100808354040283529160200191611ad5565b820191906000526020600020905b815481529060010190602001808311611ab857829003601f168201915b5050505050908060010154905082565b6001600160a01b03918216600090815260056020908152604080832093909416825291909152205460ff1690565b6000908152600b60205260409020600101546001600160a01b031690565b6001600160e01b031981166301ffc9a760e01b14919050565b600080611b5683611f00565b6001600160a01b0316141592915050565b611b7081611b4a565b610f9e5760405162461bcd60e51b815260040161056590612c01565b3390565b600081815260046020526040902080546001600160a01b0319166001600160a01b0384169081179091558190611bc582611318565b6001600160a01b03167f8c5be1e5ebec7d5bd14f71427d1e84f3dd0314c0f7b2291e5b200ac8c7c3b92560405160405180910390a45050565b600080611c0a83611318565b9050806001600160a01b0316846001600160a01b03161480611c315750611c318185611ae5565b80611c555750836001600160a01b0316611c4a846106a7565b6001600160a01b0316145b949350505050565b826001600160a01b0316611c7082611318565b6001600160a01b031614611c965760405162461bcd60e51b8152600401610565906128ea565b6001600160a01b038216611cbc5760405162461bcd60e51b8152600401610565906129dc565b611cc98383836001611756565b826001600160a01b0316611cdc82611318565b6001600160a01b031614611d025760405162461bcd60e51b8152600401610565906128ea565b600081815260046020908152604080832080546001600160a01b03199081169091556001600160a01b0387811680865260038552838620805460001901905590871680865283862080546001019055868652600290945282852080549092168417909155905184937fddf252ad1be2c89b69c2b068fc378daa952ba7f163c4a11628f55a4df523b3ef91a46107618383836001611756565b60026006541415611dbd5760405162461bcd60e51b815260040161056590612d40565b6002600655565b6001600655565b611dd6848484611c5d565b611de28484848461207b565b6117565760405162461bcd60e51b815260040161056590612898565b80546001019055565b5490565b6001600160a01b038216611e315760405162461bcd60e51b815260040161056590612ad7565b611e3a81611b4a565b15611e575760405162461bcd60e51b81526004016105659061292f565b611e65600083836001611756565b611e6e81611b4a565b15611e8b5760405162461bcd60e51b81526004016105659061292f565b6001600160a01b038216600081815260036020908152604080832080546001019055848352600290915280822080546001600160a01b0319168417905551839291907fddf252ad1be2c89b69c2b068fc378daa952ba7f163c4a11628f55a4df523b3ef908290a4610bf5600083836001611756565b6000908152600260205260409020546001600160a01b031690565b816001600160a01b0316836001600160a01b03161415611f4d5760405162461bcd60e51b815260040161056590612a20565b6001600160a01b0383811660008181526005602090815260408083209487168084529490915290819020805460ff1916851515179055517f17307eab39ab6107e8899845ad3d59bd9653f200f220920489ca2b5937696c3190611fb190859061278a565b60405180910390a3505050565b60408051602081019091526000815290565b60606000611fdd83612196565b600101905060008167ffffffffffffffff81111561200b57634e487b7160e01b600052604160045260246000fd5b6040519080825280601f01601f191660200182016040528015612035576020820181803683370190505b5090508181016020015b600019016f181899199a1a9b1b9c1cb0b131b232b360811b600a86061a8153600a850494508461206e57612073565b61203f565b509392505050565b600061208f846001600160a01b031661226e565b1561218b57836001600160a01b031663150b7a026120ab611b8c565b8786866040518563ffffffff1660e01b81526004016120cd949392919061274d565b602060405180830381600087803b1580156120e757600080fd5b505af1925050508015612117575060408051601f3d908101601f1916820190925261211491810190612591565b60015b612171573d808015612145576040519150601f19603f3d011682016040523d82523d6000602084013e61214a565b606091505b5080516121695760405162461bcd60e51b815260040161056590612898565b805181602001fd5b6001600160e01b031916630a85bd0160e11b149050611c55565b506001949350505050565b60008072184f03e93ff9f4daa797ed6e38ed64bf6a1f0160401b83106121d55772184f03e93ff9f4daa797ed6e38ed64bf6a1f0160401b830492506040015b6d04ee2d6d415b85acef81000000008310612201576d04ee2d6d415b85acef8100000000830492506020015b662386f26fc10000831061221f57662386f26fc10000830492506010015b6305f5e1008310612237576305f5e100830492506008015b612710831061224b57612710830492506004015b6064831061225d576064830492506002015b600a83106105375760010192915050565b6001600160a01b03163b151590565b6040518061010001604052806000815260200160006001600160a01b0316815260200160608152602001606081526020016060815260200160008152602001600015158152602001600081525090565b8280546122d990612ecb565b90600052602060002090601f0160209004810192826122fb5760008555612341565b82601f1061231457805160ff1916838001178555612341565b82800160010185558215612341579182015b82811115612341578251825591602001919060010190612326565b5061234d929150612351565b5090565b5b8082111561234d5760008155600101612352565b600067ffffffffffffffff8084111561238157612381612f00565b604051601f8501601f19908116603f011681019082821181831017156123a9576123a9612f00565b816040528093508581528686860111156123c257600080fd5b858560208301376000602087830101525050509392505050565b80356001600160a01b038116811461053a57600080fd5b600082601f830112612403578081fd5b611a2f83833560208501612366565b600060208284031215612423578081fd5b611a2f826123dc565b6000806040838503121561243e578081fd5b612447836123dc565b9150612455602084016123dc565b90509250929050565b600080600060608486031215612472578081fd5b61247b846123dc565b9250612489602085016123dc565b9150604084013590509250925092565b600080600080608085870312156124ae578081fd5b6124b7856123dc565b93506124c5602086016123dc565b925060408501359150606085013567ffffffffffffffff8111156124e7578182fd5b8501601f810187136124f7578182fd5b61250687823560208401612366565b91505092959194509250565b60008060408385031215612524578182fd5b61252d836123dc565b915060208301358015158114612541578182fd5b809150509250929050565b6000806040838503121561255e578182fd5b612567836123dc565b946020939093013593505050565b600060208284031215612586578081fd5b8135611a2f81612f16565b6000602082840312156125a2578081fd5b8151611a2f81612f16565b6000602082840312156125be578081fd5b813567ffffffffffffffff8111156125d4578182fd5b611c55848285016123f3565b600080600080600060a086880312156125f7578081fd5b853567ffffffffffffffff8082111561260e578283fd5b61261a89838a016123f3565b9650602088013591508082111561262f578283fd5b61263b89838a016123f3565b95506040880135915080821115612650578283fd5b5061265d888289016123f3565b9598949750949560608101359550608001359392505050565b600060208284031215612687578081fd5b5035919050565b600080604083850312156126a0578182fd5b50508035926020909101359150565b6001600160a01b03169052565b15159052565b600081518084526126da816020860160208601612e9f565b601f01601f19169290920160200192915050565b60008251612700818460208701612e9f565b9190910192915050565b6000835161271c818460208801612e9f565b835190830190612730818360208801612e9f565b01949350505050565b6001600160a01b0391909116815260200190565b6001600160a01b0385811682528416602082015260408101839052608060608201819052600090612780908301846126c2565b9695505050505050565b901515815260200190565b600060208252611a2f60208301846126c2565b6000606082526127bb60608301866126c2565b82810360208401526127cd81866126c2565b915050826040830152949350505050565b6000604082526127f160408301856126c2565b90508260208301529392505050565b6020808252602d908201527f4552433732313a2063616c6c6572206973206e6f7420746f6b656e206f776e6560408201526c1c881bdc88185c1c1c9bdd9959609a1b606082015260800190565b6020808252602b908201527f596f757220426964206d7573742062652067726561746572207468616e206d6960408201526a6e696d756d20707269636560a81b606082015260800190565b60208082526032908201527f4552433732313a207472616e7366657220746f206e6f6e20455243373231526560408201527131b2b4bb32b91034b6b83632b6b2b73a32b960711b606082015260800190565b60208082526025908201527f4552433732313a207472616e736665722066726f6d20696e636f72726563742060408201526437bbb732b960d91b606082015260800190565b6020808252601c908201527f4552433732313a20746f6b656e20616c7265616479206d696e74656400000000604082015260600190565b6020808252818101527f7468652073656e646572206973206e6f74206869676865737420626964646572604082015260600190565b60208082526021908201527f74686520616d6f756e74206973206e6f742074686520686967686573742062696040820152601960fa1b606082015260800190565b60208082526024908201527f4552433732313a207472616e7366657220746f20746865207a65726f206164646040820152637265737360e01b606082015260800190565b60208082526019908201527f4552433732313a20617070726f766520746f2063616c6c657200000000000000604082015260600190565b6020808252601b908201527f4d75736963416c62756d206e6f74206f6e2073616c65206c6973740000000000604082015260600190565b60208082526029908201527f4552433732313a2061646472657373207a65726f206973206e6f7420612076616040820152683634b21037bbb732b960b91b606082015260800190565b6020808252818101527f4552433732313a206d696e7420746f20746865207a65726f2061646472657373604082015260600190565b6020808252602a908201527f4d75736963416c62756d3a20756e617574686f72697365642063616c6c65722c604082015269103737ba1037bbb732b960b11b606082015260800190565b60208082526025908201527f4269642071756f7465206469646e2774206d65657420746865206d696e696d756040820152641b48189a5960da1b606082015260800190565b6020808252601b908201527f506c6561736520706c6163652061206869676865722071756f74650000000000604082015260600190565b6020808252601590820152741a5b9d985b1a5908135d5cda58d05b189d5b481a59605a1b604082015260600190565b60208082526018908201527f4552433732313a20696e76616c696420746f6b656e2049440000000000000000604082015260600190565b60208082526021908201527f4552433732313a20617070726f76616c20746f2063757272656e74206f776e656040820152603960f91b606082015260800190565b60208082526024908201527f5468657265206973206e6f206e65656420746f207472616e6665722070726f6660408201526334ba399760e11b606082015260800190565b6020808252603d908201527f4552433732313a20617070726f76652063616c6c6572206973206e6f7420746f60408201527f6b656e206f776e6572206f7220617070726f76656420666f7220616c6c000000606082015260800190565b6020808252600c908201526b105b189d5b481d5b9cdbdb1960a21b604082015260600190565b6020808252601f908201527f5265656e7472616e637947756172643a207265656e7472616e742063616c6c00604082015260600190565b600060208252825160208301526020830151612d9660408401826126af565b506040830151610100806060850152612db36101208501836126c2565b91506060850151601f1980868503016080870152612dd184836126c2565b935060808701519150808685030160a087015250612def83826126c2565b92505060a085015160c085015260c0850151612e0e60e08601826126bc565b5060e0949094015192909301919091525090565b90815260200190565b8881526001600160a01b038816602082015261010060408201819052600090612e568382018a6126c2565b90508281036060840152612e6a81896126c2565b90508281036080840152612e7e81886126c2565b60a0840196909652505091151560c083015260e09091015295945050505050565b60005b83811015612eba578181015183820152602001612ea2565b838111156117565750506000910152565b600281046001821680612edf57607f821691505b602082108114156109ac57634e487b7160e01b600052602260045260246000fd5b634e487b7160e01b600052604160045260246000fd5b6001600160e01b031981168114610f9e57600080fdfea264697066735822122068e2bb239068442a27b777dfb441bebd80806791685166353f16c2b181b427d264736f6c63430008010033",
  "immutableReferences": {},
  "source": "// SPDX-License-Identifier: MIT\r\npragma solidity ^0.8.0;\r\n\r\nimport \"@openzeppelin/contracts/token/ERC721/ERC721.sol\";\r\nimport \"@openzeppelin/contracts/utils/Counters.sol\";\r\nimport \"@openzeppelin/contracts/security/ReentrancyGuard.sol\";\r\n\r\n\r\n\r\ncontract MusicAlbums is ERC721, ReentrancyGuard {\r\n    using Counters for Counters.Counter;\r\n    Counters.Counter private _tokenIds;\r\n\r\n    bool private _isFullyOwned;\r\n\r\n    \r\n    struct MusicAlbum {\r\n        uint256 id;\r\n        address payable artist;\r\n        string artistName;\r\n        string name;\r\n        string description;\r\n        uint256 price;// minimum price for the album\r\n        bool forSale;\r\n        uint256 percentageOwnershipTransfered;\r\n\r\n    }\r\n    struct artistDetails{\r\n        string nameArtist;\r\n        uint256 appreciationScore;\r\n    }\r\n    \r\n    struct bidDetails{\r\n        uint256 highestBid;\r\n        address payable highestBidder;\r\n    }\r\n\r\n//Mapping the structs\r\n    mapping(string =>artistDetails) public _artistDetails;\r\n    mapping(uint256 => MusicAlbum) public _musicAlbums;\r\n    mapping(uint256 => bidDetails) private trackBid;\r\n    mapping(address => uint256) private _balances;\r\n//Creating events to acknowledge\r\n    event MusicAlbumMinted(uint256 indexed id, address indexed artist, string name, string description, uint256 price);\r\n    event MusicAlbumListed(uint256 indexed id, address indexed artist, uint256 price);\r\n    event MusicAlbumUnlisted(uint256 indexed id, address indexed artist);\r\n    event MusicAlbumBidPlaced(uint256 indexed id, address indexed bidder, uint256 amount);\r\n    event MusicAlbumSold(uint256 indexed id, address indexed buyer, uint256 amount);\r\n   \r\n//Useful modifiers\r\n    modifier FullyOwned() \r\n        {\r\n            require(_isFullyOwned, \"MusicAlbum rights are not fully transferred\");\r\n            _;\r\n        }\r\n    modifier musicAlbumExists(uint256 id) //check valid album\r\n        {\r\n            require(_exists(id), \"invalid MusicAlbum id\");\r\n            _;   \r\n        }\r\n    modifier ownerIsSender(uint256 id) //authorisation\r\n        {\r\n            require(ownerOf(id) == msg.sender, \"MusicAlbum: unauthorised caller, not owner\");\r\n            _;\r\n        }\r\n    modifier listedForSaleTrue(uint256 id) //if the requested id is on sale list\r\n        {\r\n            require(_musicAlbums[id].forSale==true, \"MusicAlbum not on sale list\");\r\n            _;\r\n        }\r\n        \r\n\r\n    constructor(bool isFullyOwned) ERC721(\"MusicAlbums\", \"MUSIC\") \r\n        {\r\n            _isFullyOwned = isFullyOwned;\r\n        }\r\n//Function to mint the NFTs.\r\n    function mintMusicNFT(string memory name, string memory description, string memory artistName , uint256 price, uint256 percentageOwnershipTransfered) public returns (uint256) {\r\n        _tokenIds.increment();\r\n        uint256 newId = _tokenIds.current();\r\n        _mint(msg.sender, newId);\r\n        _musicAlbums[newId] = MusicAlbum(newId, payable(msg.sender),artistName, name, description, price, false,percentageOwnershipTransfered);\r\n        emit MusicAlbumMinted(newId, msg.sender, name, description, price);\r\n        return newId;\r\n    }\r\n//Function to get the list of music tracks/ albums owned by the artist.\r\n    function getMusicAlbum(uint256 id) public view musicAlbumExists(id) returns (MusicAlbum memory) {\r\n        return _musicAlbums[id];\r\n    }\r\n//Function to place the music album on sale list that the buyers/bidders can view and make apt quotations/offers.\r\n    function listMusicForSale(uint256 id, uint256 Price) public musicAlbumExists(id) ownerIsSender(id) /*listedForSaleTrue(id)*/{\r\n        require(_musicAlbums[id].forSale==false);\r\n        _musicAlbums[id].forSale = true;\r\n        _musicAlbums[id].price = Price;\r\n        emit MusicAlbumListed(id, _musicAlbums[id].artist, _musicAlbums[id].price);\r\n    }\r\n//Function to take off the music album from the rights as per the artist's interest.\r\n    function unlistMusicFromSale(uint256 id) public musicAlbumExists(id) ownerIsSender(id) /*listedForSaleTrue(id)*/{\r\n        require(_musicAlbums[id].forSale!=false);\r\n        _musicAlbums[id].forSale = false;\r\n        emit MusicAlbumUnlisted(id, _musicAlbums[id].artist);\r\n    }\r\n//Function to track the bidders and get the details of the bidder with highest quote\r\n    function BidQuote(uint256 _tokenId, uint256 amount) public payable nonReentrant musicAlbumExists(_tokenId) listedForSaleTrue(_tokenId)\r\n    {\r\n  \r\n        require(amount >=_musicAlbums[_tokenId].price, \"Your Bid must be greater than minimum price\");\r\n\r\n    \r\n        require(amount > trackBid[_tokenId].highestBid, \"Please place a higher quote\");\r\n        trackBid[_tokenId].highestBid = amount;\r\n        trackBid[_tokenId].highestBidder = payable(msg.sender);\r\n        //_balances[msg.sender] += msg.value;\r\n        emit MusicAlbumBidPlaced(_tokenId,   trackBid[_tokenId].highestBidder,trackBid[_tokenId].highestBid);\r\n    }\r\n//Function to sell the music rights t the buyer with highest bid.\r\n    function sellMusicRights(uint256 _tokenId) public nonReentrant ownerIsSender(_tokenId) listedForSaleTrue(_tokenId)\r\n    {\r\n        MusicAlbum memory musicAlbum = _musicAlbums[_tokenId];\r\n        address payable highestB= trackBid[_tokenId].highestBidder;\r\n        uint256 highestBid = trackBid[_tokenId].highestBid;\r\n        require(highestB != address(0), \"Album unsold\");\r\n        require(highestBid >= musicAlbum.price, \"Bid quote didn't meet the minimum bid\");\r\n        if(highestBid>50)\r\n        {\r\n        artistStats(_tokenId,5);\r\n        }\r\n        if(highestBid<50)\r\n        {\r\n            artistStats(_tokenId,5);\r\n        }\r\n        _safeTransfer(msg.sender, highestB, _tokenId, \"\");\r\n        _musicAlbums[_tokenId].forSale = true; // Taking it off the sale list after selling it.\r\n        _musicAlbums[_tokenId].price = 0;\r\n        emit MusicAlbumSold(_tokenId, highestB, highestBid);\r\n    }\r\n    function transferether(uint256 _tokenId) public payable\r\n    {\r\n        require(msg.sender==trackBid[_tokenId].highestBidder,\"the sender is not highest bidder\");\r\n        require(msg.value >= trackBid[_tokenId].highestBid,\"the amount is not the highest bid\");\r\n         address payable k =  _musicAlbums[_tokenId].artist;\r\n         k.transfer(msg.value);\r\n        _musicAlbums[_tokenId].forSale = false;\r\n    } \r\n    function artistStats(uint256 _tokenId, uint256 value) public \r\n     {\r\n        MusicAlbum memory musicAlbum = _musicAlbums[_tokenId];\r\n        string memory temp = musicAlbum.artistName;\r\n        \r\n            _artistDetails[temp].appreciationScore=value;\r\n            _artistDetails[temp].nameArtist=temp;\r\n        \r\n\r\n    }\r\n\r\n    function viewHighestBidder(uint256 _tokenId) public view  returns (address) {\r\n        return trackBid[_tokenId].highestBidder;\r\n    }\r\n    function viewHighestBid(uint256 _tokenId) public view  returns (uint256) {\r\n        return trackBid[_tokenId].highestBid;\r\n    }\r\n\r\n//Profit amount is calculated at the buyer end and he transfers the agreed amount to the artist.\r\n    function sendProfits(uint256 _tokenId ) public payable {\r\n        MusicAlbum memory owner= _musicAlbums[_tokenId];\r\n        require(owner.percentageOwnershipTransfered<100,\"There is no need to tranfer profits.\");\r\n        (owner.artist).transfer(msg.value);\r\n}\r\n}",
  "sourcePath": "C:\\Users\\sarat\\OneDrive\\Desktop\\Manohar Bolthey\\finalbc 3 (1)\\finalbc\\music-Dapp\\music-contract\\contracts\\MusicAlbums.sol",
  "compiler": {
    "name": "solc",
    "version": "0.8.1+commit.df193b15.Emscripten.clang"
  },
  "schemaVersion": "3.4.13",
  "updatedAt": "2023-05-10T01:10:48.483Z",
  "networkType": "ethereum",
  "devdoc": {
    "kind": "dev",
    "methods": {
      "approve(address,uint256)": {
        "details": "See {IERC721-approve}."
      },
      "balanceOf(address)": {
        "details": "See {IERC721-balanceOf}."
      },
      "getApproved(uint256)": {
        "details": "See {IERC721-getApproved}."
      },
      "isApprovedForAll(address,address)": {
        "details": "See {IERC721-isApprovedForAll}."
      },
      "name()": {
        "details": "See {IERC721Metadata-name}."
      },
      "ownerOf(uint256)": {
        "details": "See {IERC721-ownerOf}."
      },
      "safeTransferFrom(address,address,uint256)": {
        "details": "See {IERC721-safeTransferFrom}."
      },
      "safeTransferFrom(address,address,uint256,bytes)": {
        "details": "See {IERC721-safeTransferFrom}."
      },
      "setApprovalForAll(address,bool)": {
        "details": "See {IERC721-setApprovalForAll}."
      },
      "supportsInterface(bytes4)": {
        "details": "See {IERC165-supportsInterface}."
      },
      "symbol()": {
        "details": "See {IERC721Metadata-symbol}."
      },
      "tokenURI(uint256)": {
        "details": "See {IERC721Metadata-tokenURI}."
      },
      "transferFrom(address,address,uint256)": {
        "details": "See {IERC721-transferFrom}."
      }
    },
    "version": 1
  },
  "userdoc": {
    "kind": "user",
    "methods": {},
    "version": 1
  }
}