{
  "contractName": "MusicAlbums",
  "abi": [
    {
      "inputs": [
        {
          "internalType": "bool",
          "name": "isFullyOwned",
          "type": "bool"
        }
      ],
      "stateMutability": "nonpayable",
      "type": "constructor"
    },
    {
      "anonymous": false,
      "inputs": [
        {
          "indexed": true,
          "internalType": "address",
          "name": "owner",
          "type": "address"
        },
        {
          "indexed": true,
          "internalType": "address",
          "name": "approved",
          "type": "address"
        },
        {
          "indexed": true,
          "internalType": "uint256",
          "name": "tokenId",
          "type": "uint256"
        }
      ],
      "name": "Approval",
      "type": "event"
    },
    {
      "anonymous": false,
      "inputs": [
        {
          "indexed": true,
          "internalType": "address",
          "name": "owner",
          "type": "address"
        },
        {
          "indexed": true,
          "internalType": "address",
          "name": "operator",
          "type": "address"
        },
        {
          "indexed": false,
          "internalType": "bool",
          "name": "approved",
          "type": "bool"
        }
      ],
      "name": "ApprovalForAll",
      "type": "event"
    },
    {
      "anonymous": false,
      "inputs": [
        {
          "indexed": true,
          "internalType": "uint256",
          "name": "id",
          "type": "uint256"
        },
        {
          "indexed": true,
          "internalType": "address",
          "name": "bidder",
          "type": "address"
        },
        {
          "indexed": false,
          "internalType": "uint256",
          "name": "amount",
          "type": "uint256"
        }
      ],
      "name": "MusicAlbumBidPlaced",
      "type": "event"
    },
    {
      "anonymous": false,
      "inputs": [
        {
          "indexed": true,
          "internalType": "uint256",
          "name": "id",
          "type": "uint256"
        },
        {
          "indexed": true,
          "internalType": "address",
          "name": "artist",
          "type": "address"
        },
        {
          "indexed": false,
          "internalType": "uint256",
          "name": "price",
          "type": "uint256"
        }
      ],
      "name": "MusicAlbumListed",
      "type": "event"
    },
    {
      "anonymous": false,
      "inputs": [
        {
          "indexed": true,
          "internalType": "uint256",
          "name": "id",
          "type": "uint256"
        },
        {
          "indexed": true,
          "internalType": "address",
          "name": "artist",
          "type": "address"
        },
        {
          "indexed": false,
          "internalType": "string",
          "name": "name",
          "type": "string"
        },
        {
          "indexed": false,
          "internalType": "string",
          "name": "description",
          "type": "string"
        },
        {
          "indexed": false,
          "internalType": "uint256",
          "name": "price",
          "type": "uint256"
        }
      ],
      "name": "MusicAlbumMinted",
      "type": "event"
    },
    {
      "anonymous": false,
      "inputs": [
        {
          "indexed": true,
          "internalType": "uint256",
          "name": "id",
          "type": "uint256"
        },
        {
          "indexed": true,
          "internalType": "address",
          "name": "buyer",
          "type": "address"
        },
        {
          "indexed": false,
          "internalType": "uint256",
          "name": "amount",
          "type": "uint256"
        }
      ],
      "name": "MusicAlbumSold",
      "type": "event"
    },
    {
      "anonymous": false,
      "inputs": [
        {
          "indexed": true,
          "internalType": "uint256",
          "name": "id",
          "type": "uint256"
        },
        {
          "indexed": true,
          "internalType": "address",
          "name": "artist",
          "type": "address"
        }
      ],
      "name": "MusicAlbumUnlisted",
      "type": "event"
    },
    {
      "anonymous": false,
      "inputs": [
        {
          "indexed": true,
          "internalType": "address",
          "name": "from",
          "type": "address"
        },
        {
          "indexed": true,
          "internalType": "address",
          "name": "to",
          "type": "address"
        },
        {
          "indexed": true,
          "internalType": "uint256",
          "name": "tokenId",
          "type": "uint256"
        }
      ],
      "name": "Transfer",
      "type": "event"
    },
    {
      "inputs": [
        {
          "internalType": "string",
          "name": "",
          "type": "string"
        }
      ],
      "name": "_artistDetails",
      "outputs": [
        {
          "internalType": "string",
          "name": "nameArtist",
          "type": "string"
        },
        {
          "internalType": "uint256",
          "name": "appreciationScore",
          "type": "uint256"
        }
      ],
      "stateMutability": "view",
      "type": "function",
      "constant": true
    },
    {
      "inputs": [
        {
          "internalType": "uint256",
          "name": "",
          "type": "uint256"
        }
      ],
      "name": "_musicAlbums",
      "outputs": [
        {
          "internalType": "uint256",
          "name": "id",
          "type": "uint256"
        },
        {
          "internalType": "address payable",
          "name": "artist",
          "type": "address"
        },
        {
          "internalType": "string",
          "name": "artistName",
          "type": "string"
        },
        {
          "internalType": "string",
          "name": "name",
          "type": "string"
        },
        {
          "internalType": "string",
          "name": "description",
          "type": "string"
        },
        {
          "internalType": "uint256",
          "name": "price",
          "type": "uint256"
        },
        {
          "internalType": "bool",
          "name": "forSale",
          "type": "bool"
        },
        {
          "internalType": "uint256",
          "name": "percentageOwnershipTransfered",
          "type": "uint256"
        }
      ],
      "stateMutability": "view",
      "type": "function",
      "constant": true
    },
    {
      "inputs": [
        {
          "internalType": "address",
          "name": "to",
          "type": "address"
        },
        {
          "internalType": "uint256",
          "name": "tokenId",
          "type": "uint256"
        }
      ],
      "name": "approve",
      "outputs": [],
      "stateMutability": "nonpayable",
      "type": "function"
    },
    {
      "inputs": [
        {
          "internalType": "address",
          "name": "owner",
          "type": "address"
        }
      ],
      "name": "balanceOf",
      "outputs": [
        {
          "internalType": "uint256",
          "name": "",
          "type": "uint256"
        }
      ],
      "stateMutability": "view",
      "type": "function",
      "constant": true
    },
    {
      "inputs": [
        {
          "internalType": "uint256",
          "name": "tokenId",
          "type": "uint256"
        }
      ],
      "name": "getApproved",
      "outputs": [
        {
          "internalType": "address",
          "name": "",
          "type": "address"
        }
      ],
      "stateMutability": "view",
      "type": "function",
      "constant": true
    },
    {
      "inputs": [
        {
          "internalType": "address",
          "name": "owner",
          "type": "address"
        },
        {
          "internalType": "address",
          "name": "operator",
          "type": "address"
        }
      ],
      "name": "isApprovedForAll",
      "outputs": [
        {
          "internalType": "bool",
          "name": "",
          "type": "bool"
        }
      ],
      "stateMutability": "view",
      "type": "function",
      "constant": true
    },
    {
      "inputs": [],
      "name": "name",
      "outputs": [
        {
          "internalType": "string",
          "name": "",
          "type": "string"
        }
      ],
      "stateMutability": "view",
      "type": "function",
      "constant": true
    },
    {
      "inputs": [
        {
          "internalType": "uint256",
          "name": "tokenId",
          "type": "uint256"
        }
      ],
      "name": "ownerOf",
      "outputs": [
        {
          "internalType": "address",
          "name": "",
          "type": "address"
        }
      ],
      "stateMutability": "view",
      "type": "function",
      "constant": true
    },
    {
      "inputs": [
        {
          "internalType": "address",
          "name": "from",
          "type": "address"
        },
        {
          "internalType": "address",
          "name": "to",
          "type": "address"
        },
        {
          "internalType": "uint256",
          "name": "tokenId",
          "type": "uint256"
        }
      ],
      "name": "safeTransferFrom",
      "outputs": [],
      "stateMutability": "nonpayable",
      "type": "function"
    },
    {
      "inputs": [
        {
          "internalType": "address",
          "name": "from",
          "type": "address"
        },
        {
          "internalType": "address",
          "name": "to",
          "type": "address"
        },
        {
          "internalType": "uint256",
          "name": "tokenId",
          "type": "uint256"
        },
        {
          "internalType": "bytes",
          "name": "data",
          "type": "bytes"
        }
      ],
      "name": "safeTransferFrom",
      "outputs": [],
      "stateMutability": "nonpayable",
      "type": "function"
    },
    {
      "inputs": [
        {
          "internalType": "address",
          "name": "operator",
          "type": "address"
        },
        {
          "internalType": "bool",
          "name": "approved",
          "type": "bool"
        }
      ],
      "name": "setApprovalForAll",
      "outputs": [],
      "stateMutability": "nonpayable",
      "type": "function"
    },
    {
      "inputs": [
        {
          "internalType": "bytes4",
          "name": "interfaceId",
          "type": "bytes4"
        }
      ],
      "name": "supportsInterface",
      "outputs": [
        {
          "internalType": "bool",
          "name": "",
          "type": "bool"
        }
      ],
      "stateMutability": "view",
      "type": "function",
      "constant": true
    },
    {
      "inputs": [],
      "name": "symbol",
      "outputs": [
        {
          "internalType": "string",
          "name": "",
          "type": "string"
        }
      ],
      "stateMutability": "view",
      "type": "function",
      "constant": true
    },
    {
      "inputs": [
        {
          "internalType": "uint256",
          "name": "tokenId",
          "type": "uint256"
        }
      ],
      "name": "tokenURI",
      "outputs": [
        {
          "internalType": "string",
          "name": "",
          "type": "string"
        }
      ],
      "stateMutability": "view",
      "type": "function",
      "constant": true
    },
    {
      "inputs": [
        {
          "internalType": "address",
          "name": "from",
          "type": "address"
        },
        {
          "internalType": "address",
          "name": "to",
          "type": "address"
        },
        {
          "internalType": "uint256",
          "name": "tokenId",
          "type": "uint256"
        }
      ],
      "name": "transferFrom",
      "outputs": [],
      "stateMutability": "nonpayable",
      "type": "function"
    },
    {
      "inputs": [
        {
          "internalType": "string",
          "name": "name",
          "type": "string"
        },
        {
          "internalType": "string",
          "name": "description",
          "type": "string"
        },
        {
          "internalType": "string",
          "name": "artistName",
          "type": "string"
        },
        {
          "internalType": "uint256",
          "name": "price",
          "type": "uint256"
        },
        {
          "internalType": "uint256",
          "name": "percentageOwnershipTransfered",
          "type": "uint256"
        }
      ],
      "name": "mintMusicNFT",
      "outputs": [
        {
          "internalType": "uint256",
          "name": "",
          "type": "uint256"
        }
      ],
      "stateMutability": "nonpayable",
      "type": "function"
    },
    {
      "inputs": [
        {
          "internalType": "uint256",
          "name": "id",
          "type": "uint256"
        }
      ],
      "name": "getMusicAlbum",
      "outputs": [
        {
          "components": [
            {
              "internalType": "uint256",
              "name": "id",
              "type": "uint256"
            },
            {
              "internalType": "address payable",
              "name": "artist",
              "type": "address"
            },
            {
              "internalType": "string",
              "name": "artistName",
              "type": "string"
            },
            {
              "internalType": "string",
              "name": "name",
              "type": "string"
            },
            {
              "internalType": "string",
              "name": "description",
              "type": "string"
            },
            {
              "internalType": "uint256",
              "name": "price",
              "type": "uint256"
            },
            {
              "internalType": "bool",
              "name": "forSale",
              "type": "bool"
            },
            {
              "internalType": "uint256",
              "name": "percentageOwnershipTransfered",
              "type": "uint256"
            }
          ],
          "internalType": "struct MusicAlbums.MusicAlbum",
          "name": "",
          "type": "tuple"
        }
      ],
      "stateMutability": "view",
      "type": "function",
      "constant": true
    },
    {
      "inputs": [
        {
          "internalType": "uint256",
          "name": "id",
          "type": "uint256"
        },
        {
          "internalType": "uint256",
          "name": "Price",
          "type": "uint256"
        }
      ],
      "name": "listMusicForSale",
      "outputs": [],
      "stateMutability": "nonpayable",
      "type": "function"
    },
    {
      "inputs": [
        {
          "internalType": "uint256",
          "name": "id",
          "type": "uint256"
        }
      ],
      "name": "unlistMusicFromSale",
      "outputs": [],
      "stateMutability": "nonpayable",
      "type": "function"
    },
    {
      "inputs": [
        {
          "internalType": "uint256",
          "name": "_tokenId",
          "type": "uint256"
        },
        {
          "internalType": "uint256",
          "name": "amount",
          "type": "uint256"
        }
      ],
      "name": "BidQuote",
      "outputs": [],
      "stateMutability": "payable",
      "type": "function",
      "payable": true
    },
    {
      "inputs": [
        {
          "internalType": "uint256",
          "name": "_tokenId",
          "type": "uint256"
        }
      ],
      "name": "sellMusicRights",
      "outputs": [],
      "stateMutability": "nonpayable",
      "type": "function"
    },
    {
      "inputs": [
        {
          "internalType": "uint256",
          "name": "_tokenId",
          "type": "uint256"
        }
      ],
      "name": "transferether",
      "outputs": [],
      "stateMutability": "payable",
      "type": "function",
      "payable": true
    },
    {
      "inputs": [
        {
          "internalType": "uint256",
          "name": "_tokenId",
          "type": "uint256"
        },
        {
          "internalType": "uint256",
          "name": "value",
          "type": "uint256"
        }
      ],
      "name": "artistStats",
      "outputs": [],
      "stateMutability": "nonpayable",
      "type": "function"
    },
    {
      "inputs": [
        {
          "internalType": "uint256",
          "name": "_tokenId",
          "type": "uint256"
        }
      ],
      "name": "viewHighestBidder",
      "outputs": [
        {
          "internalType": "address",
          "name": "",
          "type": "address"
        }
      ],
      "stateMutability": "view",
      "type": "function",
      "constant": true
    },
    {
      "inputs": [
        {
          "internalType": "uint256",
          "name": "_tokenId",
          "type": "uint256"
        }
      ],
      "name": "viewHighestBid",
      "outputs": [
        {
          "internalType": "uint256",
          "name": "",
          "type": "uint256"
        }
      ],
      "stateMutability": "view",
      "type": "function",
      "constant": true
    },
    {
      "inputs": [
        {
          "internalType": "uint256",
          "name": "_tokenId",
          "type": "uint256"
        }
      ],
      "name": "sendProfits",
      "outputs": [],
      "stateMutability": "payable",
      "type": "function",
      "payable": true
    }
  ],
  "bytecode": "0x60806040523480156200001157600080fd5b506040516200546f3803806200546f833981810160405281019062000037919062000134565b6040518060400160405280600b81526020017f4d75736963416c62756d730000000000000000000000000000000000000000008152506040518060400160405280600581526020017f4d555349430000000000000000000000000000000000000000000000000000008152508160009081620000b49190620003e0565b508060019081620000c69190620003e0565b505050600160068190555080600860006101000a81548160ff02191690831515021790555050620004c7565b600080fd5b60008115159050919050565b6200010e81620000f7565b81146200011a57600080fd5b50565b6000815190506200012e8162000103565b92915050565b6000602082840312156200014d576200014c620000f2565b5b60006200015d848285016200011d565b91505092915050565b600081519050919050565b7f4e487b7100000000000000000000000000000000000000000000000000000000600052604160045260246000fd5b7f4e487b7100000000000000000000000000000000000000000000000000000000600052602260045260246000fd5b60006002820490506001821680620001e857607f821691505b602082108103620001fe57620001fd620001a0565b5b50919050565b60008190508160005260206000209050919050565b60006020601f8301049050919050565b600082821b905092915050565b600060088302620002687fffffffffffffffffffffffffffffffffffffffffffffffffffffffffffffffff8262000229565b62000274868362000229565b95508019841693508086168417925050509392505050565b6000819050919050565b6000819050919050565b6000620002c1620002bb620002b5846200028c565b62000296565b6200028c565b9050919050565b6000819050919050565b620002dd83620002a0565b620002f5620002ec82620002c8565b84845462000236565b825550505050565b600090565b6200030c620002fd565b62000319818484620002d2565b505050565b5b8181101562000341576200033560008262000302565b6001810190506200031f565b5050565b601f82111562000390576200035a8162000204565b620003658462000219565b8101602085101562000375578190505b6200038d620003848562000219565b8301826200031e565b50505b505050565b600082821c905092915050565b6000620003b56000198460080262000395565b1980831691505092915050565b6000620003d08383620003a2565b9150826002028217905092915050565b620003eb8262000166565b67ffffffffffffffff81111562000407576200040662000171565b5b620004138254620001cf565b6200042082828562000345565b600060209050601f83116001811462000458576000841562000443578287015190505b6200044f8582620003c2565b865550620004bf565b601f198416620004688662000204565b60005b8281101562000492578489015182556001820191506020850194506020810190506200046b565b86831015620004b25784890151620004ae601f891682620003a2565b8355505b6001600288020188555050505b505050505050565b614f9880620004d76000396000f3fe6080604052600436106101815760003560e01c80635c95e96a116100d1578063b6ad2a0d1161008a578063c87b56dd11610064578063c87b56dd14610590578063db296fa7146105cd578063e985e9c51461060b578063efb388751461064857610181565b8063b6ad2a0d14610522578063b88d4fde1461054b578063c6db28ed1461057457610181565b80635c95e96a146103e75780636352211e1461042b5780636768d0b91461046857806370a082311461049157806395d89b41146104ce578063a22cb465146104f957610181565b806323b872dd1161013e5780633b7f43e8116101185780633b7f43e81461031b57806342842e0e14610344578063544684371461036d57806359b0d392146103aa57610181565b806323b872dd146102ba5780632bfae4e3146102e357806332f81926146102ff57610181565b806301ffc9a714610186578063035bab18146101c357806306fdde03146101ec578063081812fc14610217578063095ea7b3146102545780631905404b1461027d575b600080fd5b34801561019257600080fd5b506101ad60048036038101906101a89190613624565b610685565b6040516101ba919061366c565b60405180910390f35b3480156101cf57600080fd5b506101ea60048036038101906101e591906136bd565b610767565b005b3480156101f857600080fd5b50610201610909565b60405161020e919061377a565b60405180910390f35b34801561022357600080fd5b5061023e600480360381019061023991906136bd565b61099b565b60405161024b91906137dd565b60405180910390f35b34801561026057600080fd5b5061027b60048036038101906102769190613824565b6109e1565b005b34801561028957600080fd5b506102a4600480360381019061029f91906136bd565b610af8565b6040516102b191906139ab565b60405180910390f35b3480156102c657600080fd5b506102e160048036038101906102dc91906139cd565b610db5565b005b6102fd60048036038101906102f891906136bd565b610e15565b005b61031960048036038101906103149190613a20565b610fc7565b005b34801561032757600080fd5b50610342600480360381019061033d91906136bd565b61124d565b005b34801561035057600080fd5b5061036b600480360381019061036691906139cd565b61179a565b005b34801561037957600080fd5b50610394600480360381019061038f9190613b95565b6117ba565b6040516103a19190613c73565b60405180910390f35b3480156103b657600080fd5b506103d160048036038101906103cc91906136bd565b61196e565b6040516103de9190613c73565b60405180910390f35b3480156103f357600080fd5b5061040e600480360381019061040991906136bd565b61198e565b604051610422989796959493929190613c9d565b60405180910390f35b34801561043757600080fd5b50610452600480360381019061044d91906136bd565b611b9b565b60405161045f91906137dd565b60405180910390f35b34801561047457600080fd5b5061048f600480360381019061048a9190613a20565b611c21565b005b34801561049d57600080fd5b506104b860048036038101906104b39190613d30565b611eed565b6040516104c59190613c73565b60405180910390f35b3480156104da57600080fd5b506104e3611fa4565b6040516104f0919061377a565b60405180910390f35b34801561050557600080fd5b50610520600480360381019061051b9190613d89565b612036565b005b34801561052e57600080fd5b5061054960048036038101906105449190613a20565b61204c565b005b34801561055757600080fd5b50610572600480360381019061056d9190613e6a565b61222b565b005b61058e600480360381019061058991906136bd565b61228d565b005b34801561059c57600080fd5b506105b760048036038101906105b291906136bd565b61258b565b6040516105c4919061377a565b60405180910390f35b3480156105d957600080fd5b506105f460048036038101906105ef9190613eed565b6125f3565b604051610602929190613f36565b60405180910390f35b34801561061757600080fd5b50610632600480360381019061062d9190613f66565b6126b5565b60405161063f919061366c565b60405180910390f35b34801561065457600080fd5b5061066f600480360381019061066a91906136bd565b612749565b60405161067c91906137dd565b60405180910390f35b60007f80ac58cd000000000000000000000000000000000000000000000000000000007bffffffffffffffffffffffffffffffffffffffffffffffffffffffff1916827bffffffffffffffffffffffffffffffffffffffffffffffffffffffff1916148061075057507f5b5e139f000000000000000000000000000000000000000000000000000000007bffffffffffffffffffffffffffffffffffffffffffffffffffffffff1916827bffffffffffffffffffffffffffffffffffffffffffffffffffffffff1916145b80610760575061075f82612789565b5b9050919050565b80610771816127f3565b6107b0576040517f08c379a00000000000000000000000000000000000000000000000000000000081526004016107a790613ff2565b60405180910390fd5b813373ffffffffffffffffffffffffffffffffffffffff166107d182611b9b565b73ffffffffffffffffffffffffffffffffffffffff1614610827576040517f08c379a000000000000000000000000000000000000000000000000000000000815260040161081e90614084565b60405180910390fd5b60001515600a600085815260200190815260200160002060060160009054906101000a900460ff1615150361085b57600080fd5b6000600a600085815260200190815260200160002060060160006101000a81548160ff021916908315150217905550600a600084815260200190815260200160002060010160009054906101000a900473ffffffffffffffffffffffffffffffffffffffff1673ffffffffffffffffffffffffffffffffffffffff16837fa838ff4f1736bbe39b840382601b36e48686ed861ebfb220b3f1a39c086a2e5460405160405180910390a3505050565b606060008054610918906140d3565b80601f0160208091040260200160405190810160405280929190818152602001828054610944906140d3565b80156109915780601f1061096657610100808354040283529160200191610991565b820191906000526020600020905b81548152906001019060200180831161097457829003601f168201915b5050505050905090565b60006109a682612834565b6004600083815260200190815260200160002060009054906101000a900473ffffffffffffffffffffffffffffffffffffffff169050919050565b60006109ec82611b9b565b90508073ffffffffffffffffffffffffffffffffffffffff168373ffffffffffffffffffffffffffffffffffffffff1603610a5c576040517f08c379a0000000000000000000000000000000000000000000000000000000008152600401610a5390614176565b60405180910390fd5b8073ffffffffffffffffffffffffffffffffffffffff16610a7b61287f565b73ffffffffffffffffffffffffffffffffffffffff161480610aaa5750610aa981610aa461287f565b6126b5565b5b610ae9576040517f08c379a0000000000000000000000000000000000000000000000000000000008152600401610ae090614208565b60405180910390fd5b610af38383612887565b505050565b610b0061355b565b81610b0a816127f3565b610b49576040517f08c379a0000000000000000000000000000000000000000000000000000000008152600401610b4090613ff2565b60405180910390fd5b600a600084815260200190815260200160002060405180610100016040529081600082015481526020016001820160009054906101000a900473ffffffffffffffffffffffffffffffffffffffff1673ffffffffffffffffffffffffffffffffffffffff1673ffffffffffffffffffffffffffffffffffffffff168152602001600282018054610bd8906140d3565b80601f0160208091040260200160405190810160405280929190818152602001828054610c04906140d3565b8015610c515780601f10610c2657610100808354040283529160200191610c51565b820191906000526020600020905b815481529060010190602001808311610c3457829003601f168201915b50505050508152602001600382018054610c6a906140d3565b80601f0160208091040260200160405190810160405280929190818152602001828054610c96906140d3565b8015610ce35780601f10610cb857610100808354040283529160200191610ce3565b820191906000526020600020905b815481529060010190602001808311610cc657829003601f168201915b50505050508152602001600482018054610cfc906140d3565b80601f0160208091040260200160405190810160405280929190818152602001828054610d28906140d3565b8015610d755780601f10610d4a57610100808354040283529160200191610d75565b820191906000526020600020905b815481529060010190602001808311610d5857829003601f168201915b50505050508152602001600582015481526020016006820160009054906101000a900460ff16151515158152602001600782015481525050915050919050565b610dc6610dc061287f565b82612940565b610e05576040517f08c379a0000000000000000000000000000000000000000000000000000000008152600401610dfc9061429a565b60405180910390fd5b610e108383836129d5565b505050565b600b600082815260200190815260200160002060010160009054906101000a900473ffffffffffffffffffffffffffffffffffffffff1673ffffffffffffffffffffffffffffffffffffffff163373ffffffffffffffffffffffffffffffffffffffff1614610eb9576040517f08c379a0000000000000000000000000000000000000000000000000000000008152600401610eb090614306565b60405180910390fd5b600b600082815260200190815260200160002060000154341015610f12576040517f08c379a0000000000000000000000000000000000000000000000000000000008152600401610f0990614398565b60405180910390fd5b6000600a600083815260200190815260200160002060010160009054906101000a900473ffffffffffffffffffffffffffffffffffffffff1690508073ffffffffffffffffffffffffffffffffffffffff166108fc349081150290604051600060405180830381858888f19350505050158015610f93573d6000803e3d6000fd5b506000600a600084815260200190815260200160002060060160006101000a81548160ff0219169083151502179055505050565b610fcf612cce565b81610fd9816127f3565b611018576040517f08c379a000000000000000000000000000000000000000000000000000000000815260040161100f90613ff2565b60405180910390fd5b8260011515600a600083815260200190815260200160002060060160009054906101000a900460ff16151514611083576040517f08c379a000000000000000000000000000000000000000000000000000000000815260040161107a90614404565b60405180910390fd5b600a6000858152602001908152602001600020600501548310156110dc576040517f08c379a00000000000000000000000000000000000000000000000000000000081526004016110d390614496565b60405180910390fd5b600b6000858152602001908152602001600020600001548311611134576040517f08c379a000000000000000000000000000000000000000000000000000000000815260040161112b90614502565b60405180910390fd5b82600b60008681526020019081526020016000206000018190555033600b600086815260200190815260200160002060010160006101000a81548173ffffffffffffffffffffffffffffffffffffffff021916908373ffffffffffffffffffffffffffffffffffffffff160217905550600b600085815260200190815260200160002060010160009054906101000a900473ffffffffffffffffffffffffffffffffffffffff1673ffffffffffffffffffffffffffffffffffffffff16847f11d366418ea72221a3ef9657d35e6364c1425aad69ab6d8fc3497fdbcf3dd7ac600b6000888152602001908152602001600020600001546040516112379190613c73565b60405180910390a35050611249612d1d565b5050565b611255612cce565b803373ffffffffffffffffffffffffffffffffffffffff1661127682611b9b565b73ffffffffffffffffffffffffffffffffffffffff16146112cc576040517f08c379a00000000000000000000000000000000000000000000000000000000081526004016112c390614084565b60405180910390fd5b8160011515600a600083815260200190815260200160002060060160009054906101000a900460ff16151514611337576040517f08c379a000000000000000000000000000000000000000000000000000000000815260040161132e90614404565b60405180910390fd5b6000600a600085815260200190815260200160002060405180610100016040529081600082015481526020016001820160009054906101000a900473ffffffffffffffffffffffffffffffffffffffff1673ffffffffffffffffffffffffffffffffffffffff1673ffffffffffffffffffffffffffffffffffffffff1681526020016002820180546113c8906140d3565b80601f01602080910402602001604051908101604052809291908181526020018280546113f4906140d3565b80156114415780601f1061141657610100808354040283529160200191611441565b820191906000526020600020905b81548152906001019060200180831161142457829003601f168201915b5050505050815260200160038201805461145a906140d3565b80601f0160208091040260200160405190810160405280929190818152602001828054611486906140d3565b80156114d35780601f106114a8576101008083540402835291602001916114d3565b820191906000526020600020905b8154815290600101906020018083116114b657829003601f168201915b505050505081526020016004820180546114ec906140d3565b80601f0160208091040260200160405190810160405280929190818152602001828054611518906140d3565b80156115655780601f1061153a57610100808354040283529160200191611565565b820191906000526020600020905b81548152906001019060200180831161154857829003601f168201915b50505050508152602001600582015481526020016006820160009054906101000a900460ff1615151515815260200160078201548152505090506000600b600086815260200190815260200160002060010160009054906101000a900473ffffffffffffffffffffffffffffffffffffffff1690506000600b6000878152602001908152602001600020600001549050600073ffffffffffffffffffffffffffffffffffffffff168273ffffffffffffffffffffffffffffffffffffffff1603611664576040517f08c379a000000000000000000000000000000000000000000000000000000000815260040161165b9061456e565b60405180910390fd5b8260a001518110156116ab576040517f08c379a00000000000000000000000000000000000000000000000000000000081526004016116a290614600565b60405180910390fd5b60328111156116c0576116bf866005611c21565b5b60328110156116d5576116d4866005611c21565b5b6116f033838860405180602001604052806000815250612d27565b6001600a600088815260200190815260200160002060060160006101000a81548160ff0219169083151502179055506000600a6000888152602001908152602001600020600501819055508173ffffffffffffffffffffffffffffffffffffffff16867f2000592637b6d37e9d7decb35cbab1444a9ae4e1df72aa6afd8ca7b8ee03fe77836040516117829190613c73565b60405180910390a35050505050611797612d1d565b50565b6117b58383836040518060200160405280600081525061222b565b505050565b60006117c66007612d83565b60006117d26007612d99565b90506117de3382612da7565b6040518061010001604052808281526020013373ffffffffffffffffffffffffffffffffffffffff16815260200186815260200188815260200187815260200185815260200160001515815260200184815250600a60008381526020019081526020016000206000820151816000015560208201518160010160006101000a81548173ffffffffffffffffffffffffffffffffffffffff021916908373ffffffffffffffffffffffffffffffffffffffff16021790555060408201518160020190816118aa91906147cc565b5060608201518160030190816118c091906147cc565b5060808201518160040190816118d691906147cc565b5060a0820151816005015560c08201518160060160006101000a81548160ff02191690831515021790555060e082015181600701559050503373ffffffffffffffffffffffffffffffffffffffff16817ffb3c8a4adc98071b6da40bce71224e9a8d4d7c0537b17a5a80e41d79e12c44fc8989886040516119599392919061489e565b60405180910390a38091505095945050505050565b6000600b6000838152602001908152602001600020600001549050919050565b600a6020528060005260406000206000915090508060000154908060010160009054906101000a900473ffffffffffffffffffffffffffffffffffffffff16908060020180546119dd906140d3565b80601f0160208091040260200160405190810160405280929190818152602001828054611a09906140d3565b8015611a565780601f10611a2b57610100808354040283529160200191611a56565b820191906000526020600020905b815481529060010190602001808311611a3957829003601f168201915b505050505090806003018054611a6b906140d3565b80601f0160208091040260200160405190810160405280929190818152602001828054611a97906140d3565b8015611ae45780601f10611ab957610100808354040283529160200191611ae4565b820191906000526020600020905b815481529060010190602001808311611ac757829003601f168201915b505050505090806004018054611af9906140d3565b80601f0160208091040260200160405190810160405280929190818152602001828054611b25906140d3565b8015611b725780601f10611b4757610100808354040283529160200191611b72565b820191906000526020600020905b815481529060010190602001808311611b5557829003601f168201915b5050505050908060050154908060060160009054906101000a900460ff16908060070154905088565b600080611ba783612fc4565b9050600073ffffffffffffffffffffffffffffffffffffffff168173ffffffffffffffffffffffffffffffffffffffff1603611c18576040517f08c379a0000000000000000000000000000000000000000000000000000000008152600401611c0f9061492f565b60405180910390fd5b80915050919050565b6000600a600084815260200190815260200160002060405180610100016040529081600082015481526020016001820160009054906101000a900473ffffffffffffffffffffffffffffffffffffffff1673ffffffffffffffffffffffffffffffffffffffff1673ffffffffffffffffffffffffffffffffffffffff168152602001600282018054611cb2906140d3565b80601f0160208091040260200160405190810160405280929190818152602001828054611cde906140d3565b8015611d2b5780601f10611d0057610100808354040283529160200191611d2b565b820191906000526020600020905b815481529060010190602001808311611d0e57829003601f168201915b50505050508152602001600382018054611d44906140d3565b80601f0160208091040260200160405190810160405280929190818152602001828054611d70906140d3565b8015611dbd5780601f10611d9257610100808354040283529160200191611dbd565b820191906000526020600020905b815481529060010190602001808311611da057829003601f168201915b50505050508152602001600482018054611dd6906140d3565b80601f0160208091040260200160405190810160405280929190818152602001828054611e02906140d3565b8015611e4f5780601f10611e2457610100808354040283529160200191611e4f565b820191906000526020600020905b815481529060010190602001808311611e3257829003601f168201915b50505050508152602001600582015481526020016006820160009054906101000a900460ff16151515158152602001600782015481525050905060008160400151905082600982604051611ea3919061498b565b90815260200160405180910390206001018190555080600982604051611ec9919061498b565b90815260200160405180910390206000019081611ee691906147cc565b5050505050565b60008073ffffffffffffffffffffffffffffffffffffffff168273ffffffffffffffffffffffffffffffffffffffff1603611f5d576040517f08c379a0000000000000000000000000000000000000000000000000000000008152600401611f5490614a14565b60405180910390fd5b600360008373ffffffffffffffffffffffffffffffffffffffff1673ffffffffffffffffffffffffffffffffffffffff168152602001908152602001600020549050919050565b606060018054611fb3906140d3565b80601f0160208091040260200160405190810160405280929190818152602001828054611fdf906140d3565b801561202c5780601f106120015761010080835404028352916020019161202c565b820191906000526020600020905b81548152906001019060200180831161200f57829003601f168201915b5050505050905090565b61204861204161287f565b8383613001565b5050565b81612056816127f3565b612095576040517f08c379a000000000000000000000000000000000000000000000000000000000815260040161208c90613ff2565b60405180910390fd5b823373ffffffffffffffffffffffffffffffffffffffff166120b682611b9b565b73ffffffffffffffffffffffffffffffffffffffff161461210c576040517f08c379a000000000000000000000000000000000000000000000000000000000815260040161210390614084565b60405180910390fd5b60001515600a600086815260200190815260200160002060060160009054906101000a900460ff1615151461214057600080fd5b6001600a600086815260200190815260200160002060060160006101000a81548160ff02191690831515021790555082600a600086815260200190815260200160002060050181905550600a600085815260200190815260200160002060010160009054906101000a900473ffffffffffffffffffffffffffffffffffffffff1673ffffffffffffffffffffffffffffffffffffffff16847f98ce200838d2b356a970096901e2cac37424ad4f1ca86350a2680bf85d48e4bd600a60008881526020019081526020016000206005015460405161221d9190613c73565b60405180910390a350505050565b61223c61223661287f565b83612940565b61227b576040517f08c379a00000000000000000000000000000000000000000000000000000000081526004016122729061429a565b60405180910390fd5b61228784848484612d27565b50505050565b6000600a600083815260200190815260200160002060405180610100016040529081600082015481526020016001820160009054906101000a900473ffffffffffffffffffffffffffffffffffffffff1673ffffffffffffffffffffffffffffffffffffffff1673ffffffffffffffffffffffffffffffffffffffff16815260200160028201805461231e906140d3565b80601f016020809104026020016040519081016040528092919081815260200182805461234a906140d3565b80156123975780601f1061236c57610100808354040283529160200191612397565b820191906000526020600020905b81548152906001019060200180831161237a57829003601f168201915b505050505081526020016003820180546123b0906140d3565b80601f01602080910402602001604051908101604052809291908181526020018280546123dc906140d3565b80156124295780601f106123fe57610100808354040283529160200191612429565b820191906000526020600020905b81548152906001019060200180831161240c57829003601f168201915b50505050508152602001600482018054612442906140d3565b80601f016020809104026020016040519081016040528092919081815260200182805461246e906140d3565b80156124bb5780601f10612490576101008083540402835291602001916124bb565b820191906000526020600020905b81548152906001019060200180831161249e57829003601f168201915b50505050508152602001600582015481526020016006820160009054906101000a900460ff16151515158152602001600782015481525050905060648160e001511061253c576040517f08c379a000000000000000000000000000000000000000000000000000000000815260040161253390614aa6565b60405180910390fd5b806020015173ffffffffffffffffffffffffffffffffffffffff166108fc349081150290604051600060405180830381858888f19350505050158015612586573d6000803e3d6000fd5b505050565b606061259682612834565b60006125a061316d565b905060008151116125c057604051806020016040528060008152506125eb565b806125ca84613184565b6040516020016125db929190614ac6565b6040516020818303038152906040525b915050919050565b60098180516020810182018051848252602083016020850120818352809550505050505060009150905080600001805461262c906140d3565b80601f0160208091040260200160405190810160405280929190818152602001828054612658906140d3565b80156126a55780601f1061267a576101008083540402835291602001916126a5565b820191906000526020600020905b81548152906001019060200180831161268857829003601f168201915b5050505050908060010154905082565b6000600560008473ffffffffffffffffffffffffffffffffffffffff1673ffffffffffffffffffffffffffffffffffffffff16815260200190815260200160002060008373ffffffffffffffffffffffffffffffffffffffff1673ffffffffffffffffffffffffffffffffffffffff16815260200190815260200160002060009054906101000a900460ff16905092915050565b6000600b600083815260200190815260200160002060010160009054906101000a900473ffffffffffffffffffffffffffffffffffffffff169050919050565b60007f01ffc9a7000000000000000000000000000000000000000000000000000000007bffffffffffffffffffffffffffffffffffffffffffffffffffffffff1916827bffffffffffffffffffffffffffffffffffffffffffffffffffffffff1916149050919050565b60008073ffffffffffffffffffffffffffffffffffffffff1661281583612fc4565b73ffffffffffffffffffffffffffffffffffffffff1614159050919050565b61283d816127f3565b61287c576040517f08c379a00000000000000000000000000000000000000000000000000000000081526004016128739061492f565b60405180910390fd5b50565b600033905090565b816004600083815260200190815260200160002060006101000a81548173ffffffffffffffffffffffffffffffffffffffff021916908373ffffffffffffffffffffffffffffffffffffffff160217905550808273ffffffffffffffffffffffffffffffffffffffff166128fa83611b9b565b73ffffffffffffffffffffffffffffffffffffffff167f8c5be1e5ebec7d5bd14f71427d1e84f3dd0314c0f7b2291e5b200ac8c7c3b92560405160405180910390a45050565b60008061294c83611b9b565b90508073ffffffffffffffffffffffffffffffffffffffff168473ffffffffffffffffffffffffffffffffffffffff16148061298e575061298d81856126b5565b5b806129cc57508373ffffffffffffffffffffffffffffffffffffffff166129b48461099b565b73ffffffffffffffffffffffffffffffffffffffff16145b91505092915050565b8273ffffffffffffffffffffffffffffffffffffffff166129f582611b9b565b73ffffffffffffffffffffffffffffffffffffffff1614612a4b576040517f08c379a0000000000000000000000000000000000000000000000000000000008152600401612a4290614b5c565b60405180910390fd5b600073ffffffffffffffffffffffffffffffffffffffff168273ffffffffffffffffffffffffffffffffffffffff1603612aba576040517f08c379a0000000000000000000000000000000000000000000000000000000008152600401612ab190614bee565b60405180910390fd5b612ac78383836001613252565b8273ffffffffffffffffffffffffffffffffffffffff16612ae782611b9b565b73ffffffffffffffffffffffffffffffffffffffff1614612b3d576040517f08c379a0000000000000000000000000000000000000000000000000000000008152600401612b3490614b5c565b60405180910390fd5b6004600082815260200190815260200160002060006101000a81549073ffffffffffffffffffffffffffffffffffffffff02191690556001600360008573ffffffffffffffffffffffffffffffffffffffff1673ffffffffffffffffffffffffffffffffffffffff168152602001908152602001600020600082825403925050819055506001600360008473ffffffffffffffffffffffffffffffffffffffff1673ffffffffffffffffffffffffffffffffffffffff16815260200190815260200160002060008282540192505081905550816002600083815260200190815260200160002060006101000a81548173ffffffffffffffffffffffffffffffffffffffff021916908373ffffffffffffffffffffffffffffffffffffffff160217905550808273ffffffffffffffffffffffffffffffffffffffff168473ffffffffffffffffffffffffffffffffffffffff167fddf252ad1be2c89b69c2b068fc378daa952ba7f163c4a11628f55a4df523b3ef60405160405180910390a4612cc98383836001613258565b505050565b600260065403612d13576040517f08c379a0000000000000000000000000000000000000000000000000000000008152600401612d0a90614c5a565b60405180910390fd5b6002600681905550565b6001600681905550565b612d328484846129d5565b612d3e8484848461325e565b612d7d576040517f08c379a0000000000000000000000000000000000000000000000000000000008152600401612d7490614cec565b60405180910390fd5b50505050565b6001816000016000828254019250508190555050565b600081600001549050919050565b600073ffffffffffffffffffffffffffffffffffffffff168273ffffffffffffffffffffffffffffffffffffffff1603612e16576040517f08c379a0000000000000000000000000000000000000000000000000000000008152600401612e0d90614d58565b60405180910390fd5b612e1f816127f3565b15612e5f576040517f08c379a0000000000000000000000000000000000000000000000000000000008152600401612e5690614dc4565b60405180910390fd5b612e6d600083836001613252565b612e76816127f3565b15612eb6576040517f08c379a0000000000000000000000000000000000000000000000000000000008152600401612ead90614dc4565b60405180910390fd5b6001600360008473ffffffffffffffffffffffffffffffffffffffff1673ffffffffffffffffffffffffffffffffffffffff16815260200190815260200160002060008282540192505081905550816002600083815260200190815260200160002060006101000a81548173ffffffffffffffffffffffffffffffffffffffff021916908373ffffffffffffffffffffffffffffffffffffffff160217905550808273ffffffffffffffffffffffffffffffffffffffff16600073ffffffffffffffffffffffffffffffffffffffff167fddf252ad1be2c89b69c2b068fc378daa952ba7f163c4a11628f55a4df523b3ef60405160405180910390a4612fc0600083836001613258565b5050565b60006002600083815260200190815260200160002060009054906101000a900473ffffffffffffffffffffffffffffffffffffffff169050919050565b8173ffffffffffffffffffffffffffffffffffffffff168373ffffffffffffffffffffffffffffffffffffffff160361306f576040517f08c379a000000000000000000000000000000000000000000000000000000000815260040161306690614e30565b60405180910390fd5b80600560008573ffffffffffffffffffffffffffffffffffffffff1673ffffffffffffffffffffffffffffffffffffffff16815260200190815260200160002060008473ffffffffffffffffffffffffffffffffffffffff1673ffffffffffffffffffffffffffffffffffffffff16815260200190815260200160002060006101000a81548160ff0219169083151502179055508173ffffffffffffffffffffffffffffffffffffffff168373ffffffffffffffffffffffffffffffffffffffff167f17307eab39ab6107e8899845ad3d59bd9653f200f220920489ca2b5937696c3183604051613160919061366c565b60405180910390a3505050565b606060405180602001604052806000815250905090565b606060006001613193846133e5565b01905060008167ffffffffffffffff8111156131b2576131b1613a6a565b5b6040519080825280601f01601f1916602001820160405280156131e45781602001600182028036833780820191505090505b509050600082602001820190505b600115613247578080600190039150507f3031323334353637383961626364656600000000000000000000000000000000600a86061a8153600a858161323b5761323a614e50565b5b049450600085036131f2575b819350505050919050565b50505050565b50505050565b600061327f8473ffffffffffffffffffffffffffffffffffffffff16613538565b156133d8578373ffffffffffffffffffffffffffffffffffffffff1663150b7a026132a861287f565b8786866040518563ffffffff1660e01b81526004016132ca9493929190614ed4565b6020604051808303816000875af192505050801561330657506040513d601f19601f820116820180604052508101906133039190614f35565b60015b613388573d8060008114613336576040519150601f19603f3d011682016040523d82523d6000602084013e61333b565b606091505b506000815103613380576040517f08c379a000000000000000000000000000000000000000000000000000000000815260040161337790614cec565b60405180910390fd5b805181602001fd5b63150b7a0260e01b7bffffffffffffffffffffffffffffffffffffffffffffffffffffffff1916817bffffffffffffffffffffffffffffffffffffffffffffffffffffffff1916149150506133dd565b600190505b949350505050565b600080600090507a184f03e93ff9f4daa797ed6e38ed64bf6a1f0100000000000000008310613443577a184f03e93ff9f4daa797ed6e38ed64bf6a1f010000000000000000838161343957613438614e50565b5b0492506040810190505b6d04ee2d6d415b85acef81000000008310613480576d04ee2d6d415b85acef8100000000838161347657613475614e50565b5b0492506020810190505b662386f26fc1000083106134af57662386f26fc1000083816134a5576134a4614e50565b5b0492506010810190505b6305f5e10083106134d8576305f5e10083816134ce576134cd614e50565b5b0492506008810190505b61271083106134fd5761271083816134f3576134f2614e50565b5b0492506004810190505b60648310613520576064838161351657613515614e50565b5b0492506002810190505b600a831061352f576001810190505b80915050919050565b6000808273ffffffffffffffffffffffffffffffffffffffff163b119050919050565b60405180610100016040528060008152602001600073ffffffffffffffffffffffffffffffffffffffff16815260200160608152602001606081526020016060815260200160008152602001600015158152602001600081525090565b6000604051905090565b600080fd5b600080fd5b60007fffffffff0000000000000000000000000000000000000000000000000000000082169050919050565b613601816135cc565b811461360c57600080fd5b50565b60008135905061361e816135f8565b92915050565b60006020828403121561363a576136396135c2565b5b60006136488482850161360f565b91505092915050565b60008115159050919050565b61366681613651565b82525050565b6000602082019050613681600083018461365d565b92915050565b6000819050919050565b61369a81613687565b81146136a557600080fd5b50565b6000813590506136b781613691565b92915050565b6000602082840312156136d3576136d26135c2565b5b60006136e1848285016136a8565b91505092915050565b600081519050919050565b600082825260208201905092915050565b60005b83811015613724578082015181840152602081019050613709565b60008484015250505050565b6000601f19601f8301169050919050565b600061374c826136ea565b61375681856136f5565b9350613766818560208601613706565b61376f81613730565b840191505092915050565b600060208201905081810360008301526137948184613741565b905092915050565b600073ffffffffffffffffffffffffffffffffffffffff82169050919050565b60006137c78261379c565b9050919050565b6137d7816137bc565b82525050565b60006020820190506137f260008301846137ce565b92915050565b613801816137bc565b811461380c57600080fd5b50565b60008135905061381e816137f8565b92915050565b6000806040838503121561383b5761383a6135c2565b5b60006138498582860161380f565b925050602061385a858286016136a8565b9150509250929050565b61386d81613687565b82525050565b600061387e8261379c565b9050919050565b61388e81613873565b82525050565b600082825260208201905092915050565b60006138b0826136ea565b6138ba8185613894565b93506138ca818560208601613706565b6138d381613730565b840191505092915050565b6138e781613651565b82525050565b6000610100830160008301516139066000860182613864565b5060208301516139196020860182613885565b506040830151848203604086015261393182826138a5565b9150506060830151848203606086015261394b82826138a5565b9150506080830151848203608086015261396582826138a5565b91505060a083015161397a60a0860182613864565b5060c083015161398d60c08601826138de565b5060e08301516139a060e0860182613864565b508091505092915050565b600060208201905081810360008301526139c581846138ed565b905092915050565b6000806000606084860312156139e6576139e56135c2565b5b60006139f48682870161380f565b9350506020613a058682870161380f565b9250506040613a16868287016136a8565b9150509250925092565b60008060408385031215613a3757613a366135c2565b5b6000613a45858286016136a8565b9250506020613a56858286016136a8565b9150509250929050565b600080fd5b600080fd5b7f4e487b7100000000000000000000000000000000000000000000000000000000600052604160045260246000fd5b613aa282613730565b810181811067ffffffffffffffff82111715613ac157613ac0613a6a565b5b80604052505050565b6000613ad46135b8565b9050613ae08282613a99565b919050565b600067ffffffffffffffff821115613b0057613aff613a6a565b5b613b0982613730565b9050602081019050919050565b82818337600083830152505050565b6000613b38613b3384613ae5565b613aca565b905082815260208101848484011115613b5457613b53613a65565b5b613b5f848285613b16565b509392505050565b600082601f830112613b7c57613b7b613a60565b5b8135613b8c848260208601613b25565b91505092915050565b600080600080600060a08688031215613bb157613bb06135c2565b5b600086013567ffffffffffffffff811115613bcf57613bce6135c7565b5b613bdb88828901613b67565b955050602086013567ffffffffffffffff811115613bfc57613bfb6135c7565b5b613c0888828901613b67565b945050604086013567ffffffffffffffff811115613c2957613c286135c7565b5b613c3588828901613b67565b9350506060613c46888289016136a8565b9250506080613c57888289016136a8565b9150509295509295909350565b613c6d81613687565b82525050565b6000602082019050613c886000830184613c64565b92915050565b613c9781613873565b82525050565b600061010082019050613cb3600083018b613c64565b613cc0602083018a613c8e565b8181036040830152613cd28189613741565b90508181036060830152613ce68188613741565b90508181036080830152613cfa8187613741565b9050613d0960a0830186613c64565b613d1660c083018561365d565b613d2360e0830184613c64565b9998505050505050505050565b600060208284031215613d4657613d456135c2565b5b6000613d548482850161380f565b91505092915050565b613d6681613651565b8114613d7157600080fd5b50565b600081359050613d8381613d5d565b92915050565b60008060408385031215613da057613d9f6135c2565b5b6000613dae8582860161380f565b9250506020613dbf85828601613d74565b9150509250929050565b600067ffffffffffffffff821115613de457613de3613a6a565b5b613ded82613730565b9050602081019050919050565b6000613e0d613e0884613dc9565b613aca565b905082815260208101848484011115613e2957613e28613a65565b5b613e34848285613b16565b509392505050565b600082601f830112613e5157613e50613a60565b5b8135613e61848260208601613dfa565b91505092915050565b60008060008060808587031215613e8457613e836135c2565b5b6000613e928782880161380f565b9450506020613ea38782880161380f565b9350506040613eb4878288016136a8565b925050606085013567ffffffffffffffff811115613ed557613ed46135c7565b5b613ee187828801613e3c565b91505092959194509250565b600060208284031215613f0357613f026135c2565b5b600082013567ffffffffffffffff811115613f2157613f206135c7565b5b613f2d84828501613b67565b91505092915050565b60006040820190508181036000830152613f508185613741565b9050613f5f6020830184613c64565b9392505050565b60008060408385031215613f7d57613f7c6135c2565b5b6000613f8b8582860161380f565b9250506020613f9c8582860161380f565b9150509250929050565b7f696e76616c6964204d75736963416c62756d2069640000000000000000000000600082015250565b6000613fdc6015836136f5565b9150613fe782613fa6565b602082019050919050565b6000602082019050818103600083015261400b81613fcf565b9050919050565b7f4d75736963416c62756d3a20756e617574686f72697365642063616c6c65722c60008201527f206e6f74206f776e657200000000000000000000000000000000000000000000602082015250565b600061406e602a836136f5565b915061407982614012565b604082019050919050565b6000602082019050818103600083015261409d81614061565b9050919050565b7f4e487b7100000000000000000000000000000000000000000000000000000000600052602260045260246000fd5b600060028204905060018216806140eb57607f821691505b6020821081036140fe576140fd6140a4565b5b50919050565b7f4552433732313a20617070726f76616c20746f2063757272656e74206f776e6560008201527f7200000000000000000000000000000000000000000000000000000000000000602082015250565b60006141606021836136f5565b915061416b82614104565b604082019050919050565b6000602082019050818103600083015261418f81614153565b9050919050565b7f4552433732313a20617070726f76652063616c6c6572206973206e6f7420746f60008201527f6b656e206f776e6572206f7220617070726f76656420666f7220616c6c000000602082015250565b60006141f2603d836136f5565b91506141fd82614196565b604082019050919050565b60006020820190508181036000830152614221816141e5565b9050919050565b7f4552433732313a2063616c6c6572206973206e6f7420746f6b656e206f776e6560008201527f72206f7220617070726f76656400000000000000000000000000000000000000602082015250565b6000614284602d836136f5565b915061428f82614228565b604082019050919050565b600060208201905081810360008301526142b381614277565b9050919050565b7f7468652073656e646572206973206e6f74206869676865737420626964646572600082015250565b60006142f06020836136f5565b91506142fb826142ba565b602082019050919050565b6000602082019050818103600083015261431f816142e3565b9050919050565b7f74686520616d6f756e74206973206e6f7420746865206869676865737420626960008201527f6400000000000000000000000000000000000000000000000000000000000000602082015250565b60006143826021836136f5565b915061438d82614326565b604082019050919050565b600060208201905081810360008301526143b181614375565b9050919050565b7f4d75736963416c62756d206e6f74206f6e2073616c65206c6973740000000000600082015250565b60006143ee601b836136f5565b91506143f9826143b8565b602082019050919050565b6000602082019050818103600083015261441d816143e1565b9050919050565b7f596f757220426964206d7573742062652067726561746572207468616e206d6960008201527f6e696d756d207072696365000000000000000000000000000000000000000000602082015250565b6000614480602b836136f5565b915061448b82614424565b604082019050919050565b600060208201905081810360008301526144af81614473565b9050919050565b7f506c6561736520706c6163652061206869676865722071756f74650000000000600082015250565b60006144ec601b836136f5565b91506144f7826144b6565b602082019050919050565b6000602082019050818103600083015261451b816144df565b9050919050565b7f416c62756d20756e736f6c640000000000000000000000000000000000000000600082015250565b6000614558600c836136f5565b915061456382614522565b602082019050919050565b600060208201905081810360008301526145878161454b565b9050919050565b7f4269642071756f7465206469646e2774206d65657420746865206d696e696d7560008201527f6d20626964000000000000000000000000000000000000000000000000000000602082015250565b60006145ea6025836136f5565b91506145f58261458e565b604082019050919050565b60006020820190508181036000830152614619816145dd565b9050919050565b60008190508160005260206000209050919050565b60006020601f8301049050919050565b600082821b905092915050565b6000600883026146827fffffffffffffffffffffffffffffffffffffffffffffffffffffffffffffffff82614645565b61468c8683614645565b95508019841693508086168417925050509392505050565b6000819050919050565b60006146c96146c46146bf84613687565b6146a4565b613687565b9050919050565b6000819050919050565b6146e3836146ae565b6146f76146ef826146d0565b848454614652565b825550505050565b600090565b61470c6146ff565b6147178184846146da565b505050565b5b8181101561473b57614730600082614704565b60018101905061471d565b5050565b601f8211156147805761475181614620565b61475a84614635565b81016020851015614769578190505b61477d61477585614635565b83018261471c565b50505b505050565b600082821c905092915050565b60006147a360001984600802614785565b1980831691505092915050565b60006147bc8383614792565b9150826002028217905092915050565b6147d5826136ea565b67ffffffffffffffff8111156147ee576147ed613a6a565b5b6147f882546140d3565b61480382828561473f565b600060209050601f8311600181146148365760008415614824578287015190505b61482e85826147b0565b865550614896565b601f19841661484486614620565b60005b8281101561486c57848901518255600182019150602085019450602081019050614847565b868310156148895784890151614885601f891682614792565b8355505b6001600288020188555050505b505050505050565b600060608201905081810360008301526148b88186613741565b905081810360208301526148cc8185613741565b90506148db6040830184613c64565b949350505050565b7f4552433732313a20696e76616c696420746f6b656e2049440000000000000000600082015250565b60006149196018836136f5565b9150614924826148e3565b602082019050919050565b600060208201905081810360008301526149488161490c565b9050919050565b600081905092915050565b6000614965826136ea565b61496f818561494f565b935061497f818560208601613706565b80840191505092915050565b6000614997828461495a565b915081905092915050565b7f4552433732313a2061646472657373207a65726f206973206e6f74206120766160008201527f6c6964206f776e65720000000000000000000000000000000000000000000000602082015250565b60006149fe6029836136f5565b9150614a09826149a2565b604082019050919050565b60006020820190508181036000830152614a2d816149f1565b9050919050565b7f5468657265206973206e6f206e65656420746f207472616e6665722070726f6660008201527f6974732e00000000000000000000000000000000000000000000000000000000602082015250565b6000614a906024836136f5565b9150614a9b82614a34565b604082019050919050565b60006020820190508181036000830152614abf81614a83565b9050919050565b6000614ad2828561495a565b9150614ade828461495a565b91508190509392505050565b7f4552433732313a207472616e736665722066726f6d20696e636f72726563742060008201527f6f776e6572000000000000000000000000000000000000000000000000000000602082015250565b6000614b466025836136f5565b9150614b5182614aea565b604082019050919050565b60006020820190508181036000830152614b7581614b39565b9050919050565b7f4552433732313a207472616e7366657220746f20746865207a65726f2061646460008201527f7265737300000000000000000000000000000000000000000000000000000000602082015250565b6000614bd86024836136f5565b9150614be382614b7c565b604082019050919050565b60006020820190508181036000830152614c0781614bcb565b9050919050565b7f5265656e7472616e637947756172643a207265656e7472616e742063616c6c00600082015250565b6000614c44601f836136f5565b9150614c4f82614c0e565b602082019050919050565b60006020820190508181036000830152614c7381614c37565b9050919050565b7f4552433732313a207472616e7366657220746f206e6f6e20455243373231526560008201527f63656976657220696d706c656d656e7465720000000000000000000000000000602082015250565b6000614cd66032836136f5565b9150614ce182614c7a565b604082019050919050565b60006020820190508181036000830152614d0581614cc9565b9050919050565b7f4552433732313a206d696e7420746f20746865207a65726f2061646472657373600082015250565b6000614d426020836136f5565b9150614d4d82614d0c565b602082019050919050565b60006020820190508181036000830152614d7181614d35565b9050919050565b7f4552433732313a20746f6b656e20616c7265616479206d696e74656400000000600082015250565b6000614dae601c836136f5565b9150614db982614d78565b602082019050919050565b60006020820190508181036000830152614ddd81614da1565b9050919050565b7f4552433732313a20617070726f766520746f2063616c6c657200000000000000600082015250565b6000614e1a6019836136f5565b9150614e2582614de4565b602082019050919050565b60006020820190508181036000830152614e4981614e0d565b9050919050565b7f4e487b7100000000000000000000000000000000000000000000000000000000600052601260045260246000fd5b600081519050919050565b600082825260208201905092915050565b6000614ea682614e7f565b614eb08185614e8a565b9350614ec0818560208601613706565b614ec981613730565b840191505092915050565b6000608082019050614ee960008301876137ce565b614ef660208301866137ce565b614f036040830185613c64565b8181036060830152614f158184614e9b565b905095945050505050565b600081519050614f2f816135f8565b92915050565b600060208284031215614f4b57614f4a6135c2565b5b6000614f5984828501614f20565b9150509291505056fea2646970667358221220dc24f9b4e1958f5b876ae59dacb168d4e4d683612e66ceb0c98e3e7fccdd266264736f6c63430008130033",
  "immutableReferences": {},
  "source": "// SPDX-License-Identifier: MIT\r\npragma solidity ^0.8.0;\r\n\r\nimport \"@openzeppelin/contracts/token/ERC721/ERC721.sol\";\r\nimport \"@openzeppelin/contracts/utils/Counters.sol\";\r\nimport \"@openzeppelin/contracts/security/ReentrancyGuard.sol\";\r\n\r\n\r\n\r\ncontract MusicAlbums is ERC721, ReentrancyGuard {\r\n    using Counters for Counters.Counter;\r\n    Counters.Counter private _tokenIds;\r\n\r\n    bool private _isFullyOwned;\r\n\r\n    \r\n    struct MusicAlbum {\r\n        uint256 id;\r\n        address payable artist;\r\n        string artistName;\r\n        string name;\r\n        string description;\r\n        uint256 price;// minimum price for the album\r\n        bool forSale;\r\n        uint256 percentageOwnershipTransfered;\r\n\r\n    }\r\n    struct artistDetails{\r\n        string nameArtist;\r\n        uint256 appreciationScore;\r\n    }\r\n    \r\n    struct bidDetails{\r\n        uint256 highestBid;\r\n        address payable highestBidder;\r\n    }\r\n\r\n//Mapping the structs\r\n    mapping(string =>artistDetails) public _artistDetails;\r\n    mapping(uint256 => MusicAlbum) public _musicAlbums;\r\n    mapping(uint256 => bidDetails) private trackBid;\r\n    mapping(address => uint256) private _balances;\r\n//Creating events to acknowledge\r\n    event MusicAlbumMinted(uint256 indexed id, address indexed artist, string name, string description, uint256 price);\r\n    event MusicAlbumListed(uint256 indexed id, address indexed artist, uint256 price);\r\n    event MusicAlbumUnlisted(uint256 indexed id, address indexed artist);\r\n    event MusicAlbumBidPlaced(uint256 indexed id, address indexed bidder, uint256 amount);\r\n    event MusicAlbumSold(uint256 indexed id, address indexed buyer, uint256 amount);\r\n   \r\n//Useful modifiers\r\n    modifier FullyOwned() \r\n        {\r\n            require(_isFullyOwned, \"MusicAlbum rights are not fully transferred\");\r\n            _;\r\n        }\r\n    modifier musicAlbumExists(uint256 id) //check valid album\r\n        {\r\n            require(_exists(id), \"invalid MusicAlbum id\");\r\n            _;   \r\n        }\r\n    modifier ownerIsSender(uint256 id) //authorisation\r\n        {\r\n            require(ownerOf(id) == msg.sender, \"MusicAlbum: unauthorised caller, not owner\");\r\n            _;\r\n        }\r\n    modifier listedForSaleTrue(uint256 id) //if the requested id is on sale list\r\n        {\r\n            require(_musicAlbums[id].forSale==true, \"MusicAlbum not on sale list\");\r\n            _;\r\n        }\r\n        \r\n\r\n    constructor(bool isFullyOwned) ERC721(\"MusicAlbums\", \"MUSIC\") \r\n        {\r\n            _isFullyOwned = isFullyOwned;\r\n        }\r\n//Function to mint the NFTs.\r\n    function mintMusicNFT(string memory name, string memory description, string memory artistName , uint256 price, uint256 percentageOwnershipTransfered) public returns (uint256) {\r\n        _tokenIds.increment();\r\n        uint256 newId = _tokenIds.current();\r\n        _mint(msg.sender, newId);\r\n        _musicAlbums[newId] = MusicAlbum(newId, payable(msg.sender),artistName, name, description, price, false,percentageOwnershipTransfered);\r\n        emit MusicAlbumMinted(newId, msg.sender, name, description, price);\r\n        return newId;\r\n    }\r\n//Function to get the list of music tracks/ albums owned by the artist.\r\n    function getMusicAlbum(uint256 id) public view musicAlbumExists(id) returns (MusicAlbum memory) {\r\n        return _musicAlbums[id];\r\n    }\r\n//Function to place the music album on sale list that the buyers/bidders can view and make apt quotations/offers.\r\n    function listMusicForSale(uint256 id, uint256 Price) public musicAlbumExists(id) ownerIsSender(id) /*listedForSaleTrue(id)*/{\r\n        require(_musicAlbums[id].forSale==false);\r\n        _musicAlbums[id].forSale = true;\r\n        _musicAlbums[id].price = Price;\r\n        emit MusicAlbumListed(id, _musicAlbums[id].artist, _musicAlbums[id].price);\r\n    }\r\n//Function to take off the music album from the rights as per the artist's interest.\r\n    function unlistMusicFromSale(uint256 id) public musicAlbumExists(id) ownerIsSender(id) /*listedForSaleTrue(id)*/{\r\n        require(_musicAlbums[id].forSale!=false);\r\n        _musicAlbums[id].forSale = false;\r\n        emit MusicAlbumUnlisted(id, _musicAlbums[id].artist);\r\n    }\r\n//Function to track the bidders and get the details of the bidder with highest quote\r\n    function BidQuote(uint256 _tokenId, uint256 amount) public payable nonReentrant musicAlbumExists(_tokenId) listedForSaleTrue(_tokenId)\r\n    {\r\n  \r\n        require(amount >=_musicAlbums[_tokenId].price, \"Your Bid must be greater than minimum price\");\r\n\r\n    \r\n        require(amount > trackBid[_tokenId].highestBid, \"Please place a higher quote\");\r\n        trackBid[_tokenId].highestBid = amount;\r\n        trackBid[_tokenId].highestBidder = payable(msg.sender);\r\n        //_balances[msg.sender] += msg.value;\r\n        emit MusicAlbumBidPlaced(_tokenId,   trackBid[_tokenId].highestBidder,trackBid[_tokenId].highestBid);\r\n    }\r\n//Function to sell the music rights t the buyer with highest bid.\r\n    function sellMusicRights(uint256 _tokenId) public nonReentrant ownerIsSender(_tokenId) listedForSaleTrue(_tokenId)\r\n    {\r\n        MusicAlbum memory musicAlbum = _musicAlbums[_tokenId];\r\n        address payable highestB= trackBid[_tokenId].highestBidder;\r\n        uint256 highestBid = trackBid[_tokenId].highestBid;\r\n        require(highestB != address(0), \"Album unsold\");\r\n        require(highestBid >= musicAlbum.price, \"Bid quote didn't meet the minimum bid\");\r\n        if(highestBid>50)\r\n        {\r\n        artistStats(_tokenId,5);\r\n        }\r\n        if(highestBid<50)\r\n        {\r\n            artistStats(_tokenId,5);\r\n        }\r\n        _safeTransfer(msg.sender, highestB, _tokenId, \"\");\r\n        _musicAlbums[_tokenId].forSale = true; // Taking it off the sale list after selling it.\r\n        _musicAlbums[_tokenId].price = 0;\r\n        emit MusicAlbumSold(_tokenId, highestB, highestBid);\r\n    }\r\n    function transferether(uint256 _tokenId) public payable\r\n    {\r\n        require(msg.sender==trackBid[_tokenId].highestBidder,\"the sender is not highest bidder\");\r\n        require(msg.value >= trackBid[_tokenId].highestBid,\"the amount is not the highest bid\");\r\n         address payable k =  _musicAlbums[_tokenId].artist;\r\n         k.transfer(msg.value);\r\n        _musicAlbums[_tokenId].forSale = false;\r\n    } \r\n    function artistStats(uint256 _tokenId, uint256 value) public \r\n     {\r\n        MusicAlbum memory musicAlbum = _musicAlbums[_tokenId];\r\n        string memory temp = musicAlbum.artistName;\r\n        \r\n            _artistDetails[temp].appreciationScore=value;\r\n            _artistDetails[temp].nameArtist=temp;\r\n        \r\n\r\n    }\r\n\r\n    function viewHighestBidder(uint256 _tokenId) public view  returns (address) {\r\n        return trackBid[_tokenId].highestBidder;\r\n    }\r\n    function viewHighestBid(uint256 _tokenId) public view  returns (uint256) {\r\n        return trackBid[_tokenId].highestBid;\r\n    }\r\n\r\n//Profit amount is calculated at the buyer end and he transfers the agreed amount to the artist.\r\n    function sendProfits(uint256 _tokenId ) public payable {\r\n        MusicAlbum memory owner= _musicAlbums[_tokenId];\r\n        require(owner.percentageOwnershipTransfered<100,\"There is no need to tranfer profits.\");\r\n        (owner.artist).transfer(msg.value);\r\n}\r\n}",
  "sourcePath": "C:\\Users\\sarat\\OneDrive\\Desktop\\Manohar Bolthey\\finalbc 3 (1)\\finalbc\\music-Dapp\\music-contract\\contracts\\MusicAlbums.sol",
  "compiler": {
    "name": "solc",
    "version": "0.8.19+commit.7dd6d404.Emscripten.clang"
  },
  "schemaVersion": "3.4.13",
  "updatedAt": "2023-05-10T00:21:59.728Z",
  "networkType": "ethereum",
  "devdoc": {
    "events": {
      "Approval(address,address,uint256)": {
        "details": "Emitted when `owner` enables `approved` to manage the `tokenId` token."
      },
      "ApprovalForAll(address,address,bool)": {
        "details": "Emitted when `owner` enables or disables (`approved`) `operator` to manage all of its assets."
      },
      "Transfer(address,address,uint256)": {
        "details": "Emitted when `tokenId` token is transferred from `from` to `to`."
      }
    },
    "kind": "dev",
    "methods": {
      "approve(address,uint256)": {
        "details": "See {IERC721-approve}."
      },
      "balanceOf(address)": {
        "details": "See {IERC721-balanceOf}."
      },
      "getApproved(uint256)": {
        "details": "See {IERC721-getApproved}."
      },
      "isApprovedForAll(address,address)": {
        "details": "See {IERC721-isApprovedForAll}."
      },
      "name()": {
        "details": "See {IERC721Metadata-name}."
      },
      "ownerOf(uint256)": {
        "details": "See {IERC721-ownerOf}."
      },
      "safeTransferFrom(address,address,uint256)": {
        "details": "See {IERC721-safeTransferFrom}."
      },
      "safeTransferFrom(address,address,uint256,bytes)": {
        "details": "See {IERC721-safeTransferFrom}."
      },
      "setApprovalForAll(address,bool)": {
        "details": "See {IERC721-setApprovalForAll}."
      },
      "supportsInterface(bytes4)": {
        "details": "See {IERC165-supportsInterface}."
      },
      "symbol()": {
        "details": "See {IERC721Metadata-symbol}."
      },
      "tokenURI(uint256)": {
        "details": "See {IERC721Metadata-tokenURI}."
      },
      "transferFrom(address,address,uint256)": {
        "details": "See {IERC721-transferFrom}."
      }
    },
    "version": 1
  },
  "userdoc": {
    "kind": "user",
    "methods": {},
    "version": 1
  }
}